:100000000C94E2010C94A0090C94D5090C940A0AF2
:100010000C947E0A0C94B30A0C940A020C944E0CB5
:100020000C94720C0C94960C0C94AA0B0C94CE0BA2
:100030000C94F20B0C94160C0C94060B0C942A0BDB
:100040000C944E0B0C940A020C94D2120C941A13BA
:100050000C94F6120C9442080C940A020C940A02B6
:100060000C9477100C940A02000000000000005F5E
:1000700000000007000700147F147F14242A7F2A41
:10008000122313086462364955225000050300000C
:10009000001C2241000041221C0014083E081408E4
:1000A000083E0808005030000008080808080060F2
:1000B00060000020100804023E5149453E00427F86
:1000C000400042615149462141454B311814127F8D
:1000D0001027454545393C4A494930017109050316
:1000E0003649494936064949291E0036360000007E
:1000F0005636000008142241001414141414004150
:100100002214080201510906324979413E7E11113B
:10011000117E7F494949363E414141227F4141227A
:100120001C7F494949417F090909013E4149497AF2
:100130007F0808087F00417F41002040413F017F48
:10014000081422417F404040407F020C027F7F0420
:1001500008107F3E4141413E7F090909063E415159
:10016000215E7F09192946464949493101017F012C
:10017000013F4040403F1F2040201F3F4038403F4C
:100180006314081463070870080761514945430068
:100190007F41410002040810200041417F00040219
:1001A0000102044040404040000102040020545439
:1001B00054787F48444438384444442038444448C0
:1001C0007F3854545418087E0901020C5252523E92
:1001D0007F0804047800447D40002040443D007FB7
:1001E0001028440000417F40007C041804787C08FB
:1001F00004047838444444387C1414140808141453
:10020000187C7C080404084854545420043F44409B
:10021000203C4040207C1C2040201C3C4030403C86
:1002200044281028440C5050503C4464544C440022
:100230000836410000007F00000041360800080435
:10024000081008AED580D300408D142002A1C8D973
:10025000F1DB40A4A6000092012403B6044806D9AD
:10026000076A09FB0A8C0C1C0EAB0F3A11C8125519
:1002700014E2156E17F918821A0B1C931D1A1F9F92
:10028000202322A6232825A8262628A3291F2B9928
:100290002C112E872FFB306E32DF334D35BA3624CA
:1002A000388C39F23A563CB83D173F7340CE412561
:1002B000437A44CD451C476948B449FB4A3F4C81C9
:1002C0004DBF4EFB4F335168529B53C954F5551DDA
:1002D0005742586459825A9C5BB35CC75DD75EE352
:1002E0005FEB60F061F162EE63E864DD65CF66BCF0
:1002F00067A6688B696D6A4A6B236CF86CC96D964A
:100300006E5E6F2270E2709D7154720773B5735FF9
:10031000740475A5754176D8766B77FA7784780979
:10032000798979057A7C7AEE7A5C7BC57B297C8831
:100330007CE37C397D897DD57D1D7E5F7E9C7ED56D
:100340007E097F377F617F867FA67FC17FD87FE967
:100350007FF57FFD7FFF7F53454E534520583A2060
:1003600025752E25757820593A2025752E25757806
:10037000004E4F004F4B0041444A555354005343E5
:10038000524F4C4C00435552534F520049444C4538
:100390000053746174653A2025537C424C453A20E1
:1003A000255300006608C409F9092E0AA20AD70AD3
:1003B000720B3A0CBA0C9D103E1363133014361BAB
:1003C000A010391B11241FBECFEFD8E0DEBFCDBF78
:1003D00011E0A0E0B1E0E2E5F1E402C005900D9289
:1003E000A434B107D9F726E0A4E4B1E001C01D921E
:1003F000AD33B207E1F711E0C0EED1E004C02197C0
:10040000FE010E94A01BC23DD107C9F70E94401601
:100410000C944A200C940000FC01A8E5B1E089EEA0
:1004200096E08D939D931D921D9282E019978C9377
:1004300019961D921D9211821082138212821482CB
:1004400085818E7F85838D7F85838B7F8583808566
:1004500080788C638087118688E082871386148673
:100460008585887F81608587178216820895089523
:10047000FC01862F8150843048F467709585987F01
:10048000962B95871782168281E0089582E590E089
:100490009783868380E00895FF920F931F93CF93F5
:1004A000DF930F92CDB7DEB78C016983FC018081A9
:1004B000918160856F7770E0FC010190F081E02D03
:1004C0000084F185E02D40E00995F82E8030F9F0A8
:1004D000F80180819181FC010190F081E02D06807E
:1004E000F781E02D21E030E0AE014F5F5F4F60E02B
:1004F0000995F82E8030D1F0F801178216828F2DE1
:100500000F90DF91CF911F910F91FF900895F80107
:1005100080819181FC010190F081E02D0684F785B6
:10052000E02D0995F80197838683E9CFF801808152
:100530009181FC010190F081E02D0684F785E02D8A
:100540000995F80197838683DACFEF92FF920F9394
:100550001F93CF93DF938C017B01D42FC0E001C0A8
:10056000CF5FCD1750F4F701EC0FF11D6491C80176
:100570000E944C028111F4CF04C0F8011782168248
:1005800081E0DF91CF911F910F91FF90EF9008953F
:10059000BF92CF92DF92EF92FF920F931F93CF9370
:1005A000DF938C017B01D42EFC01808191816085D9
:1005B0006F7770E0FC010190F081E02D0084F185FF
:1005C000E02D40E00995B82E803011F0C0E02EC03B
:1005D000F80180819181FC010190F081E02D068479
:1005E000F785E02D0995F801978386838B2DDF91A0
:1005F000CF911F910F91FF90EF90DF90CF90BF9020
:100600000895F801808191812D2F30E0FC01019047
:10061000F081E02D0680F781E02DA7014C0F511DE0
:1006200060E40995C82E803049F0CD0FCD15B0F4A7
:10063000DD2DDC1BD13128F3D0E1E3CFF80180813F
:100640009181FC010190F081E02D0684F785E02D79
:100650000995F80197838683BC2CC8CFF8011782CF
:100660001682C4CF0F931F93CF938C01C42F677052
:10067000606B0E944C02811104C0CF911F910F91B9
:1006800008956C2F6F70C8010E944C028030A9F34E
:100690006C2F62956F706061C8010E944C028030BF
:1006A00061F3F80117821682E8CFCF93DF93FC0144
:1006B000603074F18285880F880F880F481740F5E5
:1006C000542F56955695569530E8539FC0011124E6
:1006D000680F792F711D477081E090E002C0880F8C
:1006E000991F4A95E2F7EC012030A9F0A281B3816D
:1006F000A60FB71F9C918C2F892B8C93848121E0AE
:1007000030E002C0220F331F5A95E2F7822B848318
:10071000DF91CF910895A281B381A60FB71F9C915D
:100720008C2F809589238C93E9CF6F927F928F9243
:100730009F92AF92BF92CF92DF92EF92FF920F9370
:100740001F93CF93DF93CDB7DEB768970FB6F894BA
:10075000DEBF0FBECDBF8C01FC0185858770F82EF2
:10076000E82E862F60526F3508F080E20F2EF0EEF3
:100770009F2EF02D980EF8012385CF2CD12CC60189
:10078000880F991F8C0D9D1D880F991F820F911D39
:100790008138904044F0138694858F2D880F880F00
:1007A000880F890F8487F80184859601220F331FF3
:1007B000220F331F220F331F280F311D828590E037
:1007C000880F991F880F991F880F991F8217930709
:1007D0000CF41486F801858181FB882480F881FD62
:1007E0004AC0A484A694A694A694B12CB7C0712C38
:1007F00040C0F8014485BF9C400D11246385AF9C27
:10080000600D1124682E480F6D0D2C2DC8010E941B
:100810005503862D8F5F8E1560F3D394DE1410F48C
:1008200080E0F9CFB3948B2D883068F4C72CD12C9D
:100830000B2C02C0D594C7940A94E2F7C0FACC24DA
:10084000C0F8D12CEBCFA3948A2D8630B0F48A2D3A
:10085000853068F6892D90E0FC01EE0FFF1FEE0F4A
:10086000FF1FE80FF91FEA0DF11DE859FF4FE49152
:100870007E2EB12CD8CFA12CE7CFF80193858F2DF8
:10088000880F8F0D880F890F838717821682882D16
:1008900068960FB6F894DEBF0FBECDBFDF91CF9143
:1008A0001F910F91FF90EF90DF90CF90BF90AF908E
:1008B0009F908F907F906F900895E0E041C02F5FF0
:1008C000283000F58B2D90E0880F991F880F991F15
:1008D000880F991F820F911DB6010E944B1B8E2F0E
:1008E00090E002C0959587956A95E2F780FFE7CF83
:1008F00081E090E0022E02C0880F991F0A94E2F76F
:10090000882ADDCF80E007C0FE013196E40FF11D9B
:1009100080828F5F4F5F8E15B8F33F5F353009F0EF
:1009200090F459F2892D90E0FC01EE0FFF1FEE0FBD
:10093000FF1FE80FF91FE30FF11DE859FF4FE49186
:1009400020E0812CBDCFBE016F5F7F4FC8010E94A8
:10095000C802882E803009F49ACFB394BE1470F484
:10096000F80143856B2D6A0DC8010E943203882E61
:10097000803009F48CCF30E040E0D0CFF80193858F
:100980008F2D880F8F0D880F890F8387178216820E
:10099000882483947CCFFC01958192FB882780F981
:1009A00092FF03C017821682089526E030E0378355
:1009B00026830895CF92DF92EF92FF920F931F93B9
:1009C000CF93DF93CDB7DEB760970FB6F894DEBF55
:1009D0000FBECDBF7C010E94CB04C82E803009F42D
:1009E0005AC0F701958191FB882780F991FD02C0DB
:1009F00080E02AC0428590E8499FA001112420E0B0
:100A000030E009C0F7010280F381E02DE20FF31F0F
:100A100010822F5F3F4F24173507A0F3F70192850F
:100A200021E030E002C0220F331F9A95E2F72150F7
:100A3000248313861486178216822EC0FE013196F7
:100A4000E80FF11D10828F5F8031C0F3D12CF701C8
:100A50008285D816E0F440E06D2DC7010E94320374
:100A60008030D1F010E80BC0012F402FBE016F5F26
:100A70007F4FC7010E94C802803071F0101B1030F8
:100A800021F0113188F300E1F0CFD394E0CF138649
:100A90001486178216828C2D60960FB6F894DEBFEE
:100AA0000FBECDBFDF91CF911F910F91FF90EF90BF
:100AB000DF90CF9008950F931F93CF93DF938C0116
:100AC0000E94CB048030C1F1F801958191FB22276F
:100AD00020F9D22F91FF02C0C0E004C01782168215
:100AE0002BC0CF5FF8018285C81710F5F80184810B
:100AF00090E00C2E02C0959587950A94E2F780FF4E
:100B0000F0CF40E06C2FC8010E9432038030A1F08A
:100B1000F8016281738120E8C29FC0011124680F2F
:100B2000791F40E8C8010E94C8028111DACF04C0D1
:100B30001482178216828D2FDF91CF911F910F9112
:100B40000895CF92DF92EF92FF920F931F93CF936E
:100B5000DF93EC017B01D42EC22E8D818E7F8D839D
:100B60008B7F8D8360307607D1F0FB010190F0819F
:100B7000E02D0484F585E02DCB0109950597A1F0C2
:100B800081EA90E09F838E8310E0812FDF91CF91E7
:100B90001F910F91FF90EF90DF90CF90089582EA20
:100BA00090E09F838E83F0CFF982E8828D8181600F
:100BB0008D839C2D9F7788858078892B88878D2DC4
:100BC000D98681116DC088E08A871B830A8391E0F2
:100BD000012B09F467C08D8190FB81F98D831C8204
:100BE0001B861C868D85887F81608D878D2D811168
:100BF0005BC00FE30F2EF2E1FF2EF02D42E163E424
:100C000072E0CE010E94A502182F803009F4BDCFFA
:100C100068EACE010E944C02182F803009F4B5CF4B
:100C2000602FCE010E944C02182F803009F4ADCF06
:100C30006AEDCE010E944C02182F803009F4A5CF36
:100C40006F2DCE010E944C02182F803009F49DCFE9
:100C500061E8CE010E944C02182F803009F495CF34
:100C60006FECCE010E944C02182F803009F48DCF1A
:100C70006FEACE010E944C02182F803009F485CF14
:100C80008D8184608D83CE010E94DA04182F80301C
:100C900009F47BCF8D8181FD0CC01F821E8275CF30
:100CA00084E092CF90E097CF0FE16894FF24F1F8B1
:100CB000A5CFCE010E945B058111EFCF182F65CF24
:100CC000FF920F931F93CF93DF938C01C62F0E9447
:100CD000CB04803059F0C03079F060EA80ECF82E17
:100CE000E801C8010E944C0281110AC0DF91CF9136
:100CF0001F910F91FF90089561EA88ECF82EF0CFD4
:100D00006F2DC8010E944C02803081F31F821E8229
:100D1000EDCF0F931F93CF93DF93EC01162F042F8A
:100D20000E94CB04803099F0103064F09A85091746
:100D300048F41B87902F990F990F990F9C871F825A
:100D40001E8205C082E590E09F838E8380E0DF9164
:100D5000CF911F910F9108950F931F93CF93DF931E
:100D6000EC01162F0E94CB04082F803051F11A306D
:100D700001F51B869C858D858770282F220F220FF9
:100D8000220F290F2C8790E0880F991F880F991F39
:100D9000880F991F820F911D2A8530E0220F331F83
:100DA000220F331F220F331F2817390744F41C86E4
:100DB00006C0612FCE010E949503803041F01F8252
:100DC0001E82802FDF91CF911F910F910895082FE0
:100DD000F8CF682F80914E0190914F010E94AC0690
:100DE00080E090E00895DF92EF92FF920F931F93BF
:100DF000CF93DF938C017B010E94CB04D82E8030EF
:100E0000F1F0E114FE0419F0C0E0D0E008C081E583
:100E100090E0F80197838683D12C11C02196F701C9
:100E2000EC0FFD1F6081603039F0C8010E94AC06F4
:100E30008111F4CFD82E03C0F801178216828D2DB0
:100E4000DF91CF911F910F91FF90EF90DF90089568
:100E5000EF92FF920F931F93CF93DF938C01D62FC6
:100E6000F42EE22E0E94CB04C82F8030A9F0F801A6
:100E7000858181FBCC27C0F981FF16C0D03034F0CA
:100E80008285880F880F880FF81698F082E590E029
:100E9000F80197838683C0E08C2FDF91CF911F915B
:100EA0000F91FF90EF90089582E490E097838683FE
:100EB000F3CF2E2D4F2D6D2FC8010E945503F80141
:100EC00017821682E9CF5F926F927F928F929F92E4
:100ED000AF92BF92CF92DF92EF92FF920F931F9348
:100EE000CF93DF93CDB7DEB760970FB6F894DEBF30
:100EF0000FBECDBF6C01F62E142F842E922E0E94B1
:100F0000CB04B82E803059F1F1141CF1F601A28403
:100F10001A15F8F49114E9F00030D9F0858181FBBD
:100F2000992790F9592E81FD31C0E11409F45EC072
:100F30009FEF080D2F2D290D3327331F2138304007
:100F40001CF080E88F19982EA01608F0A02E80E0E3
:100F500055C082E590E0F60197838683B12C8B2DF6
:100F600060960FB6F894DEBF0FBECDBFDF91CF9174
:100F70001F910F91FF90EF90DF90CF90BF90AF90B7
:100F80009F908F907F906F905F900895A12EB12CCD
:100F9000010F1127111F000F111F000F111F000F4C
:100FA000111F3801AA0CBB1CAA0CBB1CAA0CBB1C31
:100FB00012C02E2D4A2D602FC6010E9455030F5FCF
:100FC0001F4F8F2D890D9927991F0817190788F32F
:100FD0008FEFA81AB80AA614B70418F40F2D10E062
:100FE000F0CFF60117821682B52CB9CF90E0A1CFD1
:100FF000FE013196E80FF11D90838F5F8031C0F3C1
:101000008A1400F54F2D682DC6010E9432038030EE
:1010100011F0192D0DC0B82EA2CF012F402FBE0107
:101020006F5F7F4FC6010E94C802803079F0101BAD
:10103000103021F0113188F300E1F0CF882D8F5F5F
:10104000882EDECFF6011782168289CFB82E87CF81
:10105000FC0180818E7F80831282118283818E7F4A
:10106000838314821582168288E090E090878783BC
:1010700081858E7F818708958EE591E00E94280802
:10108000089508951F920F920FB60F9211242F9377
:101090003F934F935F936F937F938F939F93AF9300
:1010A000BF93EF93FF930E944108FF91EF91BF918F
:1010B000AF919F918F917F916F915F914F913F91F0
:1010C0002F910F900FBE0F901F9018950E943C0813
:1010D0000895FC01118210821382128215821482FB
:1010E000168217828085807F80878F7E8087128618
:1010F000118608950895CF93DF93FC01522FCB0101
:101100008397099708F04CC0822F8150883008F0EF
:101110004FC0842F820F9927991F09970CF04DC05B
:1011200081E090E002C0880F991F2A95E2F70197AD
:10113000042E02C0880F991F0A94E2F7EC019B016C
:1011400020523040ABEABAEA0E943C1BDC01B69563
:10115000A7958E7FA80FB91FCD01819691838083BB
:10116000019693838283029795838483C683478302
:101170008085806180875F70807F852B80879196D6
:101180009C918C2F809589238C93A281B3819C9113
:101190008681809589238C931286118681E005C013
:1011A00084E890E09287818780E0DF91CF91089575
:1011B00081E890E092878187F7CF83E890E092877B
:1011C0008187F2CFFC01908594FB882780F994FFFA
:1011D00017C06130D1F0623031F161110EC0A081D1
:1011E000B1812C919681909592239C93A281B38199
:1011F0002C919681909592239C9312861186089546
:1012000026E030E0328721870895A081B1812C91BA
:101210009681909592239C93A281B3819C91268183
:10122000922B9C93EACFA081B1819C912681922B35
:101230009C93E3CFFC0111821082138212821582EB
:101240001482168287818E7F878311861086089587
:101250000895FC01CB018397099738F59B01205233
:101260003040ABEABAEA0E943C1B9C0136952795B8
:101270008E7F820F931FBC016F5D7F4F9C012E5D9F
:101280003F4F718360833383228380969583848369
:1012900081E001C0880F4A95EAF7868387818160E3
:1012A00087831186108681E0089584E890E0918715
:1012B000808780E00895FC019781892F817090FFDD
:1012C00017C06130D1F0623031F161110EC0A081E0
:1012D000B1812C919681909592239C93A281B381A8
:1012E0002C919681909592239C9311861086089557
:1012F00026E030E0318720870895A081B1812C91CC
:101300009681909592239C93A281B3819C91268192
:10131000922B9C93EACFA081B1819C912681922B44
:101320009C93E3CFFC0180818E7F808312821182A7
:101330001382089588E691E00E9492090895089525
:101340001F920F920FB60F9211242F933F934F933A
:101350005F936F937F938F939F93AF93BF93EF931D
:10136000FF930E949F09FF91EF91BF91AF919F91D1
:101370008F917F916F915F914F913F912F910F903E
:101380000FBE0F901F9018950E949A090895FC01B6
:1013900080818E7F808312821182138208958CE671
:1013A00091E00E94C709089508951F920F920FB609
:1013B0000F9211242F933F934F935F936F937F93DB
:1013C0008F939F93AF93BF93EF93FF930E94D409A2
:1013D000FF91EF91BF91AF919F918F917F916F910D
:1013E0005F914F913F912F910F900FBE0F901F90E3
:1013F00018950E94CF090895FC0180818E7F80831B
:10140000128211821382089580E791E00E94FC0904
:10141000089508951F920F920FB60F9211242F93E3
:101420003F934F935F936F937F938F939F93AF936C
:10143000BF93EF93FF930E94090AFF91EF91BF9131
:10144000AF919F918F917F916F915F914F913F915C
:101450002F910F900FBE0F901F9018950E94040AB5
:101460000895FC0180818E7F808312821182138215
:10147000089584E791E00E94310A0895FC01ACE6EA
:10148000B0E09C919078962B9C93638380818160DF
:1014900080831282118281E00895FC01962F917061
:1014A00061FD926062FD946063FD986064FD9061EF
:1014B00065FD906266FF0FC09064413091F042304C
:1014C000C9F041110AC087B19095892387B988B1C5
:1014D000892388B902C09111F0CF1282118281E074
:1014E000089527B1892F8095822387B988B1892BE8
:1014F00088B9F3CF87B1892B87B9EFCF1F920F92AD
:101500000FB60F9211242F933F934F935F936F93D6
:101510007F938F939F93AF93BF93EF93FF930E941B
:10152000C71AFF91EF91BF91AF919F918F917F91DA
:101530006F915F914F913F912F910F900FBE0F9040
:101540001F9018950E94390A0895FC0180818E7FB2
:101550008083128211821382089588E791E00E94AD
:10156000A50A089508951F920F920FB60F921124A5
:101570002F933F934F935F936F937F938F939F939B
:10158000AF93BF93EF93FF930E94B20AFF91EF9145
:10159000BF91AF919F918F917F916F915F914F918B
:1015A0003F912F910F900FBE0F901F9018950E94A2
:1015B000AD0A0895FC0180818E7F808312821182A2
:1015C0001382148208958CE791E00E94DA0A08954C
:1015D000FC0194B525B59C7F277F862F8370892BCE
:1015E000962F96959695990F990F990F922B987F14
:1015F000942B84BD95BD6483438380818160808307
:101600001282118281E00895089508951F920F9229
:101610000FB60F9211242F933F934F935F936F93C5
:101620007F938F939F93AF93BF93EF93FF930E940A
:101630000C1BFF91EF91BF91AF919F918F917F9183
:101640006F915F914F913F912F910F900FBE0F902F
:101650001F9018951F920F920FB60F9211242F937F
:101660003F934F935F936F937F938F939F93AF932A
:10167000BF93EF93FF930E94040BFF91EF91BF91F3
:10168000AF919F918F917F916F915F914F913F911A
:101690002F910F900FBE0F901F9018951F920F92D1
:1016A0000FB60F9211242F933F934F935F936F9335
:1016B0007F938F939F93AF93BF93EF93FF930E947A
:1016C000050BFF91EF91BF91AF919F918F917F910A
:1016D0006F915F914F913F912F910F900FBE0F909F
:1016E0001F9018950E94E30A0895FC0180818E7F67
:1016F00080831282118213821482089581E891E01E
:101700000E94750B0895CF93DF93FC01C0E8D0E0F1
:101710009881A1E8B0E02C919C7F277E862F837072
:10172000892B962F96959695990F990F990F922B35
:10173000987F942B88839C9364834383808181600A
:1017400080831282118281E0DF91CF910895089504
:10175000089508951F920F920FB60F9211242F93A0
:101760003F934F935F936F937F938F939F93AF9329
:10177000BF93EF93FF930E94A90BFF91EF91BF914D
:10178000AF919F918F917F916F915F914F913F9119
:101790002F910F900FBE0F901F9018951F920F92D0
:1017A0000FB60F9211242F933F934F935F936F9334
:1017B0007F938F939F93AF93BF93EF93FF930E9479
:1017C000A70BFF91EF91BF91AF919F918F917F9167
:1017D0006F915F914F913F912F910F900FBE0F909E
:1017E0001F9018951F920F920FB60F9211242F93EE
:1017F0003F934F935F936F937F938F939F93AF9399
:10180000BF93EF93FF930E94A80BFF91EF91BF91BD
:10181000AF919F918F917F916F915F914F913F9188
:101820002F910F900FBE0F901F9018951F920F923F
:101830000FB60F9211242F933F934F935F936F93A3
:101840007F938F939F93AF93BF93EF93FF930E94E8
:10185000F815FF91EF91BF91AF919F918F917F917B
:101860006F915F914F913F912F910F900FBE0F900D
:101870001F9018950E947E0B0895FC0180818E7F39
:1018800080831282118213821482089586E891E087
:101890000E943D0C08950895089508951F920F9297
:1018A0000FB60F9211242F933F934F935F936F9333
:1018B0007F938F939F93AF93BF93EF93FF930E9478
:1018C0004B0CFF91EF91BF91AF919F918F917F91C1
:1018D0006F915F914F913F912F910F900FBE0F909D
:1018E0001F9018951F920F920FB60F9211242F93ED
:1018F0003F934F935F936F937F938F939F93AF9398
:10190000BF93EF93FF930E944C0CFF91EF91BF9117
:10191000AF919F918F917F916F915F914F913F9187
:101920002F910F900FBE0F901F9018951F920F923E
:101930000FB60F9211242F933F934F935F936F93A2
:101940007F938F939F93AF93BF93EF93FF930E94E7
:101950004D0CFF91EF91BF91AF919F918F917F912E
:101960006F915F914F913F912F910F900FBE0F900C
:101970001F9018950E94460C089522E430E0FC0167
:101980003383228380E0089522E430E0FC01338336
:10199000228380E0089522E430E0FC013383228337
:1019A00080E0089522E430E0FC013383228380E06C
:1019B000089522E430E0FC013383228380E008951F
:1019C00022E430E0FC013383228380E0089580E04C
:1019D00090E00895FC01828193810895FC01CB0180
:1019E0009370DC01262F220F84858170822B8487DF
:1019F00067FB662760F985858E7F682B65878B2F4F
:101A00008370880F697F862B858740FB83F98587E4
:101A10008681816086831582148281E0089585E045
:101A200090E00895FC01848195810895FC018AE08D
:101A300091E0918380838EE191E091838083108A8D
:101A4000178681898078818B8585982F9F709587EF
:101A50009685987F9687118A9289907C928B94853F
:101A600091709487982F9E7095878870858786815E
:101A70008E7F868314868D7F868388EF90E09187A2
:101A8000808784E190E0938782871782158615828C
:101A9000148208958CE891E00E94160D08952EE1BD
:101AA00031E0FC013183208308958CE891E00E94AD
:101AB0004F0D0895BF92CF92DF92EF92FF920F9356
:101AC0001F93CF93DF9300D000D0CDB7DEB78C014A
:101AD0006A017B01B22E19821A821B821C82ECEBF6
:101AE000F0E080818B7F808310821092B900109289
:101AF000B8001092BA001092BD00483E83E058072B
:101B00006105710508F48AC041385A416640704049
:101B100008F098C02A3008F49BC0253608F09EC013
:101B2000F80187859089009729F00E94A11CF8018F
:101B3000108A17868B2D90E061E070E002960E947B
:101B4000E91BF801908B8787892B09F48DC02B2D19
:101B50002E5FB0FA882787F991899F77892B818B2F
:101B600026952F739289907C922B928B8078818B13
:101B700085858F7085878685887F8687BE016F5FA4
:101B80007F4F80EE91E00E94171469817A818B81EA
:101B90009C81A70196010E945F1B29833A834B8396
:101BA0005C83DA01C9014097A040B04089839A83E1
:101BB000AB83BC83AC01BD0176956795579547957E
:101BC00049835A836B837C83052E062A072AA1F05A
:101BD0004D3F23E052076105710508F04AC0887F38
:101BE0008460B695A79597958795D8F7482FE9EB28
:101BF000F0E08081816080834093B8008FEF809314
:101C0000BB00ECEBF0E0808184608083F801848588
:101C1000816084871582148281E006C082E790E0AB
:101C2000F8019583848380E00F900F900F900F90C0
:101C3000DF91CF911F910F91FF90EF90DF90CF90A8
:101C4000BF90089581E790E0F80195838483EBCFFE
:101C500086E690E0F80195838483E5CF85E690E001
:101C6000F80195838483DFCF84E090E095838483BB
:101C7000DACF413F2FE052076105710570F4807E95
:101C80008061B695A79597958795D8F7482FE9EB8A
:101C9000F0E0808182608083AFCF413C5F43604051
:101CA000704070F480788064B695A7959795879575
:101CB000D8F7482FE9EBF0E08081836080839CCFE8
:101CC00040E09ACF0F931F93DC011A968D919D915E
:101CD0001C97892BF9F08091EA0180FF11C0E0EE9A
:101CE000F1E00385148525853685158A148A1A96B0
:101CF0008D919D911C97080F191F211D311D18C032
:101D000086E090E09093F5018093F40100E010E00C
:101D10009801EDCF0FEF1FEF98010AC086E090E029
:101D20009093F5018093F4019091BC0090FF18C04E
:101D30009091EA0190FFF2CFE0EEF1E04385548507
:101D400065857685158A148A0417150726073707CF
:101D500058F789E090E014968D939D9380E004C03D
:101D600014961D921D9281E01F910F910895FC0120
:101D700086818D7F868388EF90E09187808785EAD2
:101D80008093BC001582148281E00895CF93DF9385
:101D9000EC019E8191FB882780F991FF02C090E0C1
:101DA00013C024EA30E03D832C8312C0EF85F8890C
:101DB000292F30E0D9011196260F371FEA0FFB1F9C
:101DC0005081F90150839F5F941780F31D821C821C
:101DD000DF91CF910895BF92CF92DF92EF92FF9261
:101DE0000F931F93CF93DF93EC01D62EC42EB22E08
:101DF0008C8580FBFF24F0F880FF18C0E11419F0F7
:101E00000030100711F1CE010E94620EF82E8030D2
:101E100089F08C2D811147C0EF85F8898D2D880FB1
:101E20008083EF85F889B18220E024C086E090E0CD
:101E30009D838C838F2DDF91CF911F910F91FF9008
:101E4000EF90DF90CF90BF90089581E590E09D8363
:101E50008C83F12CEFCF822F90E0EF85F889AC01D5
:101E60004E5F5F4FE40FF51F800F911FDC018C91D7
:101E700080832F5F2E1578F3E394E3948E2D829563
:101E8000807F9D859F70892B8D878E2D82958F7089
:101E900087709E85987F892B8E87CE010E94B70E12
:101EA0001D821C82C7CFEF85F8898D2D880F808316
:101EB000EF85F889B1828D858F7080628D878E85E0
:101EC000887F8E87CE010E94B70ECE010E94620EDF
:101ED000811102C0F82EAECFEF85F8898D2D880FC5
:101EE000816080838E2D8F5F982F9295907F2D85B6
:101EF0002F70922B9D8782958F7087709E85987F1B
:101F0000892B8E87CE010E94B70ECE010E94620EF1
:101F1000811102C0F82E8ECF4E2DB801CE010E9445
:101F2000C60E8111BDCFF82E85CFEF920F931F9370
:101F3000CF93DF93EC019E81892F817090FF09C0C0
:101F40008D8583FF10C085E090E09D838C8380E0C9
:101F500004C027EA30E03D832C83DF91CF911F91AD
:101F60000F91EF9008959C8596958D8580FB88272D
:101F700087F9892BE22E8A01262F41E0682FCE01B6
:101F80000E94EB0E803049F31D821C82E6CFEF9257
:101F90000F931F93CF93DF93EC019E81892F817064
:101FA00090FF09C08D8583FF10C085E090E09D8380
:101FB0008C8380E004C027EA30E03D832C83DF91EE
:101FC000CF911F910F91EF9008959C8596958D85E7
:101FD00080FB882787F9892BE22E8A01262F40E093
:101FE000682FCE010E94EB0E803049F31D821C82C7
:101FF000E6CFFC019091B9009C7F983309F473C03F
:1020000078F09035E1F1983509F45DC0903409F429
:1020100043C08091B900878384E08093BC00089519
:10202000983139F010F5983011F0903191F7109205
:102030008B01958592959F70868587708295807FAC
:10204000892B90918B01981798F40784F089E02DE3
:10205000892F8F5F80938B01E90FF11D8081809321
:10206000BB0085E88093BC000895983211F3D1CF6E
:1020700086818260868384E98093BC000895909174
:10208000BB00A785B08980918B01282F2F5F2093FB
:102090008B01A80FB11D9C9320918B019585929582
:1020A0009F70868587708295807F892B8150990BE0
:1020B0002817190624F485EC8093BC00089585E860
:1020C0008093BC000895A785B08980918B01A80FEB
:1020D000B11D8091BB008C9386818260868384E9E8
:1020E0008093BC00089585EA8093BC0008951F92F8
:1020F0000F920FB60F9211242F933F934F935F933C
:102100006F937F938F939F93AF93BF93EF93FF93BF
:102110008CE891E00E94F90FFF91EF91BF91AF9190
:102120009F918F917F916F915F914F913F912F91EF
:102130000F900FBE0F901F9018950E944A0D0895A2
:102140000E94550D08958F929F92AF92BF92DF9299
:10215000EF92FF920F931F93CF93DF93CDB7DEB72C
:102160002C970FB6F894DEBF0FBECDBF7C01009157
:10217000C0003091C1008091C2004091C4005091D4
:10218000C50019821A821B821C82F7019385913047
:1021900018F019F4886001C0877F282F2F7CF70181
:1021A0009285913021F0923021F4206202C0806348
:1021B000282F832F8B7FD82E822F897FF701948140
:1021C000933081F030F4913059F0923069F48460AA
:1021D0000BC0973049F43460D32E822F866004C040
:1021E000826002C0822F8660017E182F1E73F70165
:1021F000B5809B2D983030F4EB2DF0E0E95AFF4D7F
:102200000C94A01BBB24B39404C002606894BB244C
:10221000B3F8BE016F5F7F4F80EE91E00E9417140C
:10222000F7012681378140855185AB2DB0E00E94B2
:10223000AD1B9B01AC0169817A818B819C810E94DD
:102240005F1B215030404040504049015A0160E03E
:1022500070E0CB012D833E834F83588769877A874F
:102260008B879C870093C000D092C1001093C2005E
:102270002D813E814F81588560E070E080E090E0E4
:1022800008E00E94BA1B2F702093C5008092C40002
:10229000F7011382128281E02C960FB6F894DEBF0C
:1022A0000FBECDBFDF91CF911F910F91FF90EF90A7
:1022B000DF90BF90AF909F908F9008951064A9CF4A
:1022C00011646894BB24B1F8A4CF8C73806C182F70
:1022D0006894BB24B1F89DCF126C6894BB24B1F80C
:1022E00098CF8D7F816C182F6894BB24B1F891CF63
:1022F000836C182F6894BB24B1F88BCF6894BB24EF
:10230000B4F887CFFC018081877F8083683030F00C
:1023100083E490E09383828380E008956583138251
:10232000128281E00895FC018081877F808340389C
:1023300080E758076105710509F458C0E8F5403C8D
:1023400082E158076105710509F450C0E8F448308E
:1023500087E058076105710509F448C070F44835F5
:1023600082E058076105760709F440C0403B84E0ED
:10237000580761057607D1F439C0403689E058071F
:102380006105760799F432C0403488E35807610547
:10239000760761F140308BE458076407740731F128
:1023A000403885E258076105760701F180EA90E040
:1023B0009383828380E00895403082EC580781E067
:1023C0006807710599F0D0F4403C8AED5807610523
:1023D000760761F0403081EE58076407740731F0EA
:1023E000403086E958076407740701F7468357832E
:1023F000608771871382128281E00895403084E8FB
:10240000580783E06807740789F3403088EE58075F
:1024100083E06807740751F3403084EF580781E088
:102420006807740719F6E2CFDC018C91877F8C93E3
:10243000E62FE155EA3428F4F0E0E15AFF4D0C9420
:10244000A01B89EA90E012968D939D9380E00895F9
:10245000862F8370813041F0823021F18FEF9FEF22
:1024600012968D939D93F2CF1B961C921B97862FED
:102470008695869583708130D1F08230E1F08111AC
:102480001EC01A961C921A9762956F70673051F1B0
:10249000E0F0683061F1693099F587E014968C932B
:1024A000149729C081E01B968C931B97E0CF1A9656
:1024B0008C931A97E9CF1A968C931A97E5CF8FEFE2
:1024C0009FEF12968D939D93C1CF653039F06630A2
:1024D000B9F481E014968C9314970DC014961C9255
:1024E000149709C082E014968C93149704C083E07B
:1024F00014968C93149712961D921D9281E0089564
:102500008FEF9FEF12968D939D93A0CF0F931F9304
:10251000CF93DF93EC01122F0E949311811105C01C
:10252000DF91CF911F910F910895612FCE010E94ED
:1025300082118030A9F3602FCE010E9414128030E6
:1025400079F3EFE9F1E086EC92E1918780871386D9
:10255000128682E08383158614861B821A82E0CF5E
:102560000F9301E820E040E855E260E070E08DEA7A
:1025700091E00E9486120F9108958091C00085FF1E
:10258000FCCF6093C60080E090E00895AB01682F17
:102590008091B9019091BA010E94BD1208950895E9
:1025A000089508951F920F920FB60F9211242F9342
:1025B0003F934F935F936F937F938F939F93AF93CB
:1025C000BF93EF93FF930E94CF12FF91EF91BF91C2
:1025D000AF919F918F917F916F915F914F913F91BB
:1025E0002F910F900FBE0F901F9018951F920F9272
:1025F0000FB60F9211242F933F934F935F936F93D6
:102600007F938F939F93AF93BF93EF93FF930E941A
:10261000D112FF91EF91BF91AF919F918F917F91D7
:102620006F915F914F913F912F910F900FBE0F903F
:102630001F9018951F920F920FB60F9211242F938F
:102640003F934F935F936F937F938F939F93AF933A
:10265000BF93EF93FF930E94D012FF91EF91BF9130
:10266000AF919F918F917F916F915F914F913F912A
:102670002F910F900FBE0F901F9018950E94B012CF
:102680000895DC018C918E7F8D931D921D925F9633
:102690008C918E7F8C938D7F8C9384608D938EE153
:1026A00090E08D939D93959790E005C0FD01E90F13
:1026B000F11D13829F5F9F31C8F308958BEB91E06A
:1026C0000E94411308950E945E1308951F93CF93B3
:1026D000DF9320E43EE745E050E00E94811BDC01EF
:1026E000CB01AC01BD01BB230CF450C040328FEBD9
:1026F000580782E0680771050CF44FC040525F4BE9
:10270000624070401FEF41398FE5580781E068074C
:10271000710554F080E29FEBA2E0B0E0841B950BC2
:10272000A60BB70BAC01BD01A4E3BDE59A01AB015B
:102730000E94AD1BAA27BB2790308CF1492F50E097
:10274000FA01EE0FFF1FEB5AFD4FC591D5914F5F78
:102750005F4FFA01EE0FFF1FEB5AFD4F4591559168
:102760004C1B5D0B282F30E0DA010E94A61BBB2713
:1027700097FDBA95A92F982F872F8C0F9D1F10308A
:1027800089F084F0DF91CF911F910895805C91488A
:10279000AA4FBF4FAC01BD01A9CF11E0B4CF8FEF5D
:1027A0009FE7EDCF919581959109ECCF6057704AE5
:1027B0008E4F9F4F0E9466130895FC0182858E7F85
:1027C00082871682178210861186108211821282E9
:1027D0001382158214821786108A118A128A138630
:1027E00014861586168683898E7F838B4030540726
:1027F0006407740771F04083518362837383468357
:10280000578360877187828581608287158A148AE1
:10281000089582E790E0958B848B089540E054E220
:1028200064EF70E080EE91E00E94DD130895603067
:10283000760779F0FC012681378140855185FB01BF
:102840002083318342835383FC01158A148A81E0FB
:10285000089521E530E0FC01358B248B80E008955C
:102860000E940E14089583E396E00E941A0988E2FC
:1028700096E00E9469088EE196E00E941A0980E1C4
:1028800096E00E940C02089580E196E00E943702D3
:102890008EE196E00E94280988E296E00E947A087C
:1028A00083E396E00E94280908954F925F926F9209
:1028B0007F928F929F92AF92BF92CF92DF92EF92D0
:1028C000FF920F931F93470158018601621B730B00
:1028D000840B950B6B017C0180EAC81685E1D80654
:1028E0008FEFE806F80684F081E6C8168AEED8066F
:1028F000E104F10494F00F2EF0E6CF2EFAEEDF2E75
:10290000E12CF12CF02D09C00F2EF0EACF2EF5E1CD
:10291000DF2EEE24EA94FE2CF02DC701B6010E94B2
:102920006613092E000CAA0BBB0B072E7CE0880F48
:10293000991FAA1FBB1F7A95D1F7702D2C013D015D
:10294000C701B6010E94D6139C01990F440B550B89
:10295000C301B2010E94811B29013A01C501B401E2
:102960000E9466136C01990FEE08FF080B2EBCE065
:10297000CC0CDD1CEE1CFF1CBA95D1F7B02DC501A7
:10298000B4010E94D6139C01990F440B550BC7014B
:10299000B6010E94811B69017A01D801A30192014D
:1029A0000E94AD1B9B01AC01A0E0B6E00E94AD1BF4
:1029B000A70196010E94811BDA01C901905CAF4F0B
:1029C000BF4FBB234CF09038A105B1053CF08FEF11
:1029D0009FE7A0E0B0E002C080E090E01F910F917F
:1029E000FF90EF90DF90CF90BF90AF909F908F902F
:1029F0007F906F905F904F9008958EBD0DB407FE4D
:102A0000FDCF8EB50895AF92BF92CF92DF92EF9235
:102A1000FF921F93CF93DF935C016B017A01A0E2D9
:102A2000B6E0ED91FD91908112968C91809589236D
:102A3000808310E00AC0F501EC0FFD1FCC0DDD1DF9
:102A400080810E94FD1488831F5FC12FD0E01E1576
:102A50001F0488F3A0E2B6E0ED91FD91808112960B
:102A60009C91892B8083DF91CF911F91FF90EF90F4
:102A7000DF90CF90BF90AF900895EF92FF920F93A9
:102A8000F70157E6508301839283838374836583C0
:102A900042FB882780F94270840F86833783208722
:102AA00011861286138614861586168617860F9150
:102AB000FF90EF900895EF92FF920F931F93CF93A3
:102AC000DF93EC01F7018081883609F08AC08181AB
:102AD00090E0D8018D939D93E280F12C00E010E00E
:102AE0001E2D0027FF24EE24838190E0A0E0B0E0BB
:102AF000DC0199278827E80EF91E0A1F1B1F848115
:102B000090E0A0E0B0E0BA2FA92F982F8827E80E18
:102B1000F91E0A1F1B1F8581E80EF11C011D111DE6
:102B2000DB01ED92FD920D931D93668170E080E0D4
:102B300090E0962F882777276627E780F12C00E022
:102B400010E08701FF24EE246E0D7F1D801F911F72
:102B5000E084F12C00E010E0102F0F2DFE2CEE246D
:102B60006E0D7F1D801F911F1185610F711D811DCD
:102B7000911DDE016D937D938D939D93828590E0F1
:102B8000A0E0B0E0B82FAA2799278827E384F12C8A
:102B900000E010E08701FF24EE248E0D9F1DA01F92
:102BA000B11FE484F12C00E010E0102F0F2DFE2C5B
:102BB000EE248E0D9F1DA01FB11F6585860F911DF0
:102BC000A11DB11DEA0188839983AA83BB838685F1
:102BD00090E0982F88274785840F911DF9019183F4
:102BE0008083DF91CF911F910F91FF90EF90089517
:102BF00080910A0290910B02A0910C02B0910D02FB
:102C00000196A11DB11D80930A0290930B02A0931F
:102C10000C02B0930D020895F89440910A0250916D
:102C20000B0260910C0270910D022FB7F894809105
:102C30008400909185002FBFB09B0EC08F3F9807F6
:102C400059F04F5F5F4F6F4F7F4F2FB7F8948091D0
:102C50008400909185002FBF789477707860440F3E
:102C6000551F661F771FD8F7892F99278695869558
:102C70008695480F591F611D711DCB01BA0108953A
:102C8000CDB7DEB7C456D0400FB6F894DEBF0FBE46
:102C9000CDBF41E067E084E791E00E944D0A67E024
:102CA00084E791E00E943E0A8BB382608BBBE8E62A
:102CB000F0E080818260808323E040E068E270E0A1
:102CC00088E296E00E947B0861E088E296E00E943C
:102CD000E20841E065E270E08EE196E00E94290999
:102CE00062E08EE196E00E945B09E4E6F0E080811C
:102CF0008B7F808384B1846084B984B1886084B917
:102D000084B18F7E84B984B1806284B981E58CBD41
:102D100045E060E08CE791E00E94E80A8BE987BD1E
:102D200085B3826085BBEEE6F0E0808182608083BF
:102D300042E060E081E891E00E94830B86B381600D
:102D400086BBEFE6F0E08081816080838DEA91E0D0
:102D50000E94A31040E052EC61E070E08DEA91E047
:102D60000E94931169E88DEA91E00E941412E1EC4F
:102D7000F0E0808188608083808180618083E8E4E6
:102D8000F1E08FE991E0958384839383828391833B
:102D90008083789420E440E85AE166E070E08CE8B3
:102DA00091E00E945A0D00E112E02CE340E06CE853
:102DB00071E080E196E00E94A10561E080E196E08B
:102DC0000E94600680E196E00E94DA0419A21AA22D
:102DD0001BA21CA21DA21EA21FA218A619A61AA6FB
:102DE0001BA61CA61EA61DA681E090E098AB8FA78F
:102DF0008EE291E00E942E1DA5961CAE1DAE1EAE69
:102E00001FAEA597A0961CAE1DAE1EAE1FAEA0971E
:102E1000812CF12C0F2EF4E1AF2EF02D0F2EF4E1CA
:102E2000BF2EF02D312C912C212CA1961FAEA197F5
:102E3000B1C0109209020E940C162B013C0190E0D7
:102E400019C096013327092E02C0359527950A949B
:102E5000E2F72095309521703327092E02C0220F0A
:102E6000331F0A94E2F7A9012091FC01242B20933F
:102E7000FC019F5F933008F0A0C0A92FB0E0FD01D6
:102E8000EE0FFF1FEE0FFF1FE350FE4F40815181F9
:102E90006281738193018201041B150B260B370B92
:102EA000003110402040304000F12091FC0130E022
:102EB000092E02C0359527950A94E2F720FFC1CF6D
:102EC00096013327092E02C0359527950A94E2F71B
:102ED00021703327092E02C0220F331F0A94E2F714
:102EE00020958091FC012823C2CF81E080930902C4
:102EF000C0CF0E940C160091010210910202209195
:102F0000030230910402DC01CB01801B910BA20B68
:102F1000B30B813D9740A040B04008F458C083E017
:102F200090E09093FA018093F90151C080E090E025
:102F30009093FA018093F9018F2D8670803029F0EB
:102F40008091FC018670811152C080910F02811125
:102F50005DC00091F9011091FA010230110509F4E8
:102F6000B4C208F092C10130110508F4D7C181F450
:102F700089A19AA1ABA1BCA181369A4EA040B040D4
:102F80000CF40FC282E090E09093FA018093F90173
:102F9000F090FC01E8E2F6E0A481B5810C91868115
:102FA000082310E0878102C0159507958A95E2F7FE
:102FB00068018091090281113CCF8091FC01F826C3
:102FC0008091FC01F8228091FC0180FD92CFF0FEFF
:102FD000B3CF8091FC0180FFAFCF8091F901909138
:102FE000FA01892B09F0A2CF81E090E0A1CF0E94E5
:102FF0000C166D966FAF6D976E967FAF6E976F964E
:103000008FAF6F97A0969FAFA0979FCF80E196E07C
:103010000E94DA0447E060E080E196E00E948906C1
:1030200061E080E196E00E9438028FA598A9892B83
:1030300009F04AC024E733E08091F9019091FA0148
:103040008130910509F443C08230910509F442C0F2
:10305000892B09F042C08CE893E03F932F939F9314
:103060008F9381E993E09F938F938E010F5C1F4FA5
:103070001F930F930E945A1DB80180E196E00E94B1
:10308000F3068DA19EA1AFA1B8A50FB6F894DEBF3F
:103090000FBECDBF8E3F2AE5920721E0A207B10502
:1030A000FCF4833025EA92072EEFA2072FEFB20738
:1030B0000CF444C0BC01CD0122E835E040E050E012
:1030C0000E94811B622F0DC021E733E0B5CF85E858
:1030D00093E0C3CF8EE793E0C0CF87E793E0BDCF07
:1030E0006FE3262F27FD2195603011F00CF060E092
:1030F000615CEE24E39401E040E080E196E00E9410
:10310000630789A19AA1ABA1BCA18E3F2AE59207D2
:1031100021E0A207B105A4F4833025EA92072EEF3F
:10312000A2072FEFB207DCF1BC01CD0122E835E0A8
:1031300040E050E00E94811B622F03C061ECD1CFC0
:103140006FE3262F27FD2195603011F00CF060E031
:10315000615CEE24E39401E041E080E196E00E94AE
:10316000630789A59AA5ABA5BCA58E3F2AE5920762
:1031700021E0A207B105ACF4833025EA92072EEFD7
:10318000A2072FEFB2070CF47EC0BC01CD0122E8EC
:1031900035E040E050E00E94811B622F03C061ECEB
:1031A000D0CF6FE3262F27FD2195603011F00CF072
:1031B00060E0615CEE24E39401E042E080E196E0AF
:1031C0000E94630721E0492D4695A1966FADA19716
:1031D00080E196E00E94280745E06AE080E196E001
:1031E0000E9489068DECA89E412D1124642F6695BE
:1031F00066956695962F990F990F960F990F6A2DE0
:10320000691B469546954695B89E812D1124282F19
:10321000269526952695922F990F990F920F990F23
:103220002B2D291B86958695869570E07F936F934D
:1032300050E05F934F9330E03F932F9390E09F9344
:103240008F9387E593E09F938F938E01095B1F4FC8
:103250001F930F930E945A1D45E060E080E196E0C5
:103260000E948906B80180E196E00E94F30680E1A1
:1032700096E00E945B0510920F020FB6F894DEBF35
:103280000FBECDBF66CE61EC8DCF0330110509F0C6
:103290007FCEF2FE08C08B2D90E005966DE270E0C7
:1032A0000E944B1BB82EF1FE08C08A2D90E00596B7
:1032B0006DE270E00E944B1BA82E8091FB018030D4
:1032C00009F466CE6E018FEFC81AD80A760120E0A5
:1032D00030E040E0632D792D822DA1969FADA1971E
:1032E0000E943D1580E1E80EF11C40E150E0B7017D
:1032F000C6010E9403158E01015D1F4F9E01235DD3
:103300003F4FAE01475D5F4FBE016F5D7F4FCE0106
:1033100085960E945B151092FB013ACE8091FB01CD
:10332000803009F435CE1092FB018394882D8330D0
:1033300008F42ECE6E018FEFC81AD80A760120E06D
:1033400030E040E0632D792D822DA1969FADA197AD
:103350000E943D1580E1E80EF11C40E150E0B7010C
:10336000C6010E9403158E01015D1F4F9E01235D62
:103370003F4FAE01475D5F4FBE016F5D7F4FCE0196
:1033800085960E945B1589A19AA1ABA1BCA1A596C7
:103390008CAF9DAFAEAFBFAFA5971092FB01812C54
:1033A000F7CD0E940C16DC01CB01A0962CAD3DADF3
:1033B0004EAD5FADA097821B930BA40BB50B85366A
:1033C0009040A040B040B0F58091FB01803009F4FE
:1033D000DFCD4091FC010091F9011091FA016E01DD
:1033E0008FEFC81AD80A760120E030E0632D792DDE
:1033F000822DA1969FADA1970E943D1580E1E80E18
:10340000F11C40E150E0B701C6010E9403158E0196
:10341000015D1F4F9E01235D3F4FAE01475D5F4F32
:10342000BE016F5D7F4FCE0185960E945B151092A5
:10343000FB01AECDCB2CD12C69A57AA58BA59CA583
:1034400018ECE12E1FEAF12E00E010E020E030E061
:10345000A9010E9455142C01612C712CCA2CD12C6D
:1034600069A17AA18BA19CA118EAE12E11E6F12EA7
:1034700000E010E0A5962CAD3DAD4EAD5FADA5973B
:103480000E945514A0E0B0E020E8521661047104D7
:1034900044F00F2E44244A94FFE75F2E612C712CD8
:1034A000F02D242CA1965FAEA1979038A105B1050F
:1034B00024F08FEF9FE7A0E0B0E02FEF3FE7281B5D
:1034C000390BC901322E992E7FCF89A19AA1ABA1C8
:1034D000BCA180349C49A040B0403CF481E090E025
:1034E0009093FA018093F90153CD8091FB018030D4
:1034F00009F44ECD89A59AA5ABA5BCA5AC01BD012B
:10350000BB23DCF149395A4360407040F4F1BC01FF
:10351000CD0128E93AE340E050E00E94811B409150
:10352000FC01022E000C330B6E018FEFC81AD80A73
:103530007601632D792D822DA1969FADA1970E94D2
:103540003D1580E1E80EF11C40E150E0B701C601F5
:103550000E9403158E01015D1F4F9E01235D3F4FA9
:10356000AE01475D5F4FBE016F5D7F4FCE01859617
:103570000E945B151092FB010BCD44275527BA0121
:10358000481B590B6A0B7B0BBDCF20E0C8CF0F93B4
:103590001F93CF93DF93E8E2F6E0A481B5818C918D
:1035A0009681892390E0278102C0959587952A9579
:1035B000E2F7082F10E010C00E940C16CC0FDD1FA0
:1035C000CC0FDD1FC350DE4F688379838A839B83D2
:1035D00081E0809309021F5F1330C8F48091FC01E1
:1035E000C12FD0E0802790E0012E02C095958795ED
:1035F0000A94E2F780FDE0CFCC0FDD1FCC0FDD1F7A
:10360000C350DE4F188219821A821B82E4CFDF91E9
:10361000CF911F910F9108958091F801982F9F5F8E
:103620009093F801813089F08091F701982F9F5F86
:103630009093F7018A3071F08091F601982F9F5F87
:103640009093F601823361F008958093FB0110920C
:10365000F801EACF81E080930F021092F701ECCFDE
:1036600081E080930E021092F60108950E943314B7
:1036700008950E9444140895A29FB001B39FC00111
:10368000A39F700D811D1124911DB29F700D811D8E
:103690001124911D089597FB072E16F4009407D06E
:1036A00077FD09D00E94D51B07FC05D03EF490950C
:1036B00081959F4F0895709561957F4F0895A1E280
:1036C0001A2EAA1BBB1BFD010DC0AA1FBB1FEE1F9C
:1036D000FF1FA217B307E407F50720F0A21BB30BE7
:1036E000E40BF50B661F771F881F991F1A9469F763
:1036F00060957095809590959B01AC01BD01CF01BF
:103700000895052E97FB1EF400940E94981B57FD08
:1037100007D00E945F1B07FC03D04EF40C94981B4B
:1037200050954095309521953F4F4F4F5F4F0895ED
:1037300090958095709561957F4F8F4F9F4F08951D
:10374000EE0FFF1F0590F491E02D09940E943C1BA1
:10375000B7FF0895821B930B08950E943C1BA59F01
:10376000900DB49F900DA49F800D911D112408957C
:1037700097FD1094002E083098F00850232F342F16
:10378000452F562F672F782F892F912DF4CF159421
:103790009795879577956795579547953795279589
:1037A0000A95AAF71124002D0895AA1BBB1B51E10D
:1037B00007C0AA1FBB1FA617B70710F0A61BB70BA1
:1037C000881F991F5A95A9F780959095BC01CD0146
:1037D0000895CF92DF92EF92FF92CF93DF939C01F7
:1037E000DB010E943C1B6B017C01C0E0D0E080E863
:1037F000D816E104F10458F4C6010E940F1CEC0134
:10380000009729F0A60160E070E00E94271DCE011C
:10381000DF91CF91FF90EF90DF90CF9008950F93BD
:103820001F93CF93DF939C01029710F422E030E0C6
:10383000E0914401F091450180E090E0DC01309797
:1038400091F4009709F445C0821B930B84309105D5
:10385000B0F5DB0112968D919D91209759F18A83E5
:103860009B83FB010DC0408151810281138142176E
:103870005307B8F089F4109751F012960D931C93EA
:103880003296CF01DF91CF911F910F910895009350
:10389000440110934501F4CF009751F048175907A0
:1038A00038F0AC01DE01CA01ED01DF01F801C7CF3C
:1038B000BF01F9CF8093440190934501D2CFFB0122
:1038C000E80FF91F219331930297DB018D939D93AC
:1038D000D8CF40914601509147014115510541F41F
:1038E00040910201509103014093460150934701DA
:1038F0008091000190910101009741F48DB79EB72E
:103900006091040170910501861B970B48175907B8
:1039100008F0B7CF841B950B8217930708F4B1CF3B
:10392000B9016E5F7F4F8617970708F4AACF640F1F
:10393000751F6093460170934701FA0121933193FB
:10394000A0CFCF93DF930097E1F0DC011D921D9291
:1039500014974D915D911297E0914401F0914501CA
:10396000840F951F20914601309147012817390790
:1039700051F5A0934601B093470180E090E0309765
:1039800029F4DF91CF910895CF01F901228133818C
:1039900021153105C9F7EF01299139912C0F3D1FF0
:1039A000A217B30771F7009749F4109244011092DF
:1039B0004501E0934601F0934701E3CFDC01129605
:1039C0001D921D92F6CF20E030E0309731F4A093A5
:1039D0004401B0934501D5CFFB01EA17FB07F8F48A
:1039E000628173819F0161157105B1F7E901AA83B5
:1039F000BB83F90141915191CF01840F951FA81705
:103A0000B90709F0BECF8D919D910296840F951F45
:103A1000888399838D919D918A839B83B2CF1296DF
:103A2000ED93FD931497E817F90769F44E5F5F4F24
:103A300080819181840F951F8D939D9382819381C5
:103A40008D939D9314972115310581F6C0CFDC012C
:103A500001C06D9341505040E0F708950F931F93BC
:103A6000CF93DF93E0914A01F0914B012381EC0168
:103A700000E010E021FD0EC00FEF1FEFC801DF9145
:103A8000CF911F910F91089521960995892B11F0DF
:103A90000FEF1FEF888160914A0170914B01DB01AC
:103AA0001896ED91FD918111EFCF8AE00995892B50
:103AB00029F3E2CFAEE0B0E0E0E6FDE10C94232094
:103AC0008EE08C832B893C8929833A838FEF9FE793
:103AD0008D839E83AE01495E5F4F6D897E89CE01E5
:103AE00001960E947E1DEF81F8852B893C89E20FAB
:103AF000F31F10822E96E2E00C943F20ABE0B0E082
:103B0000E4E8FDE10C9416206C017B018A01FC01C4
:103B100016821782838181FFDFC13AE0532EF601BE
:103B20002381F70123FD859123FF81917F01811579
:103B300009F437C1853239F423FD959123FF919122
:103B40007F01953229F4B60190E00E94851FE7CFEE
:103B500030E0912C612C712CF0E27F1640F59B3205
:103B6000D9F058F49032D1F09332F1F09E3291F5C1
:103B700076FC17C1689476F806C09D3291F09033B8
:103B8000C1F4689470F8F70123FD959123FF91919A
:103B90007F019111E1CF28C0689471F8689472F8A0
:103BA000F2CF689473F8EFCF689474F8ECCF77FC99
:103BB0001BC080ED890F8A30C8F676FE05C0959C43
:103BC000800D1124982EDFCF659C800D1124682E66
:103BD0007F2AD9CF9C3619F4689477F8D4CF9C34D7
:103BE00009F445C0983679F2892F8F7D855483304A
:103BF00008F43FC0933609F461C0933709F46BC0F1
:103C0000933509F477C0943619F0993609F0A4C0B9
:103C1000F80177FE9AC061917191819191918F0124
:103C2000272D2F76822E97FF04C00E94981B689440
:103C300087F82AE030E05E014FEFA41AB40AA5012C
:103C40000E94B51F782E7A1886FECFC0882D8E7FF1
:103C5000791408F0C9C084FE1DC182FC11C12EEE8A
:103C60008222B92C882D867809F4CBC00EC131E0B0
:103C70008ACF311501F1085F1F4F8FE3898321E05F
:103C8000822E912C5E012FEFA21AB20AE89477F8E7
:103C900073FC03C086149104F0F18114910409F0BF
:103CA00041C0611409F43BCFB60180E290E00E946C
:103CB000851F6A94F6CF0C5F1F4FDFCFF80180811C
:103CC00089830E5F1F4F91E0892E912C5E01FFEFDB
:103CD000AF1ABF0ADBCFF801A190B1908F01692D17
:103CE00070E076FC02C06FEF7FEFC5010E947A1F83
:103CF0004C01CCCFF801A190B1908F01692D70E0FB
:103D000076FC02C06FEF7FEFC5010E946F1F4C0170
:103D1000689477F8BDCFB60180E290E00E94851FDD
:103D20006A94B8CFF50177FC859177FE81915F01A8
:103D3000B60190E00E94851F81E0611001C080E023
:103D4000681AF1E08F1A9108A8CF61917191872FBD
:103D5000880F880B982F63CF9537C9F4872CE89488
:103D600084F82AE030E0F80187FE39C06191719152
:103D7000819191918F015E01FFEFAF1ABF0AA501FA
:103D80000E94B51F782E7A18E89487F85DCF872DAA
:103D9000897F882E903799F058F49835A9F09F368E
:103DA000D9F0F601868197812B96EFE00C943220B2
:103DB0009837B9F774FC05C020E130E0D4CF68949F
:103DC00084F8689482F8F8CF74FE03C0E72DE660AB
:103DD0008E2E20E132E0C7CF28E030E0C4CF6191E1
:103DE000719180E090E0C6CF882EB72C84FE3ACF48
:103DF000FE01E70DF11D8081803309F044C049EEDA
:103E0000842283FC0EC080FE51C0972CB61418F497
:103E1000960C9B18B62C862D8B196B1408F480E039
:103E2000B80EB61408F044C06B1884FE43C0B60147
:103E300080E390E00E94851F82FE09C088E590E043
:103E400081FC02C088E790E0B6010E94851F7914CA
:103E5000E0F15E018FEFA81AB80A7A9482E0882E0A
:103E6000912C8C0E9D1E870C911CF40182914F01A8
:103E7000B60190E00E94851F8A149B04B1F711CF10
:103E8000B92C882EB5CF82FC02C0B394BACFB394BC
:103E9000B394B7CFB92C882EE5CEB60180E290E07E
:103EA0000E94851FA394A614C0F3B5CFAB2CFBCF03
:103EB000612CBBCF882D867851F280E281FC8BE2A9
:103EC00087FC8DE2B60190E0C0CFB60180E390E0C0
:103ED0000E94851F9A94BBCF8FEF9FEF65CFFC01A7
:103EE0000590615070400110D8F7809590958E0F25
:103EF0009F1F0895FC016150704001900110D8F798
:103F0000809590958E0F9F1F08950F931F93CF93C9
:103F1000DF93182F092FEB018B8181FD09C00FEF73
:103F20001FEF812F902FDF91CF911F910F91089557
:103F300082FF14C02E813F818C819D812817390713
:103F40003CF4E881F981CF0101968883998310833D
:103F50008E819F8101968E839F83E3CFE885F985CB
:103F6000812F0995892BA1F3DACFFA01AA272830EE
:103F700051F1203181F1E8946F936E7F6E5F7F4F36
:103F80008F4F9F4FAF4FB1E03ED0B4E03CD0670FB2
:103F9000781F891F9A1FA11D680F791F8A1F911D05
:103FA000A11D6A0F711D811D911DA11D20D009F455
:103FB00068943F912AE0269F11243019305D319397
:103FC000DEF6CF010895462F4770405D4193B3E080
:103FD0000FD0C9F7F6CF462F4F70405D4A3318F027
:103FE000495D31FD4052419302D0A9F7EACFB4E0D8
:103FF000A6959795879577956795BA95C9F7009790
:104000006105710508959B01AC010A2E0694579530
:10401000479537952795BA95C9F7620F731F841F87
:10402000951FA01D08952F923F924F925F926F921D
:104030007F928F929F92AF92BF92CF92DF92EF9238
:10404000FF920F931F93CF93DF93CDB7DEB7CA1BB9
:10405000DB0B0FB6F894DEBF0FBECDBF09942A88E4
:10406000398848885F846E847D848C849B84AA848C
:10407000B984C884DF80EE80FD800C811B81AA8119
:10408000B981CE0FD11D0FB6F894DEBF0FBECDBFE4
:10409000ED01089511E0C0EED1E004C0FE010E94E0
:1040A000A01B2196C23ED107C9F7F894FFCF7E111D
:1040B00005115E11601165116C11711178112812D2
:1040C000281221122112281228122112211228123C
:1040D000281221122112211221122112211228123A
:1040E000281221122112281228122112211228121C
:1040F000281221122112211221122112211228121A
:1041000028122112211228122812211221122812FB
:1041100028122112211221122112211221122812F9
:1041200028122112211228122812211221122812DB
:1041300028122112211221122112211221122812D9
:1041400028122112211228122812211221122812BB
:02415000281233
:1041520000003D06200000000000BD0CC40CCB0C8A
:10416200D20CD90CE00CE70CEA0C00000000950F11
:10417200C40CCB0CC70FEE0CE00C0F0D120D496EE8
:10418200696369616C697A616E646F2041746D65FF
:044192006761000061
:00000001FF
