:100000000C9450010C9447070C947C070C94B10796
:100010000C9425080C945A080C9478010C94F5095A
:100020000C94190A0C943D0A0C9451090C9475090E
:100030000C9499090C94BD090C94AD080C94D1084A
:100040000C94F5080C9478010C9479100C94C11060
:100050000C949D100C94E9050C9478010C94780193
:100060000C941E0E0C947801000000000000005F4C
:1000700000000007000700147F147F14242A7F2A41
:10008000122313086462364955225000050300000C
:10009000001C2241000041221C0014083E081408E4
:1000A000083E0808005030000008080808080060F2
:1000B00060000020100804023E5149453E00427F86
:1000C000400042615149462141454B311814127F8D
:1000D0001027454545393C4A494930017109050316
:1000E0003649494936064949291E0036360000007E
:1000F0005636000008142241001414141414004150
:100100002214080201510906324979413E7E11113B
:10011000117E7F494949363E414141227F4141227A
:100120001C7F494949417F090909013E4149497AF2
:100130007F0808087F00417F41002040413F017F48
:10014000081422417F404040407F020C027F7F0420
:1001500008107F3E4141413E7F090909063E415159
:10016000215E7F09192946464949493101017F012C
:10017000013F4040403F1F2040201F3F4038403F4C
:100180006314081463070870080761514945430068
:100190007F41410002040810200041417F00040219
:1001A0000102044040404040000102040020545439
:1001B00054787F48444438384444442038444448C0
:1001C0007F3854545418087E0901020C5252523E92
:1001D0007F0804047800447D40002040443D007FB7
:1001E0001028440000417F40007C041804787C08FB
:1001F00004047838444444387C1414140808141453
:10020000187C7C080404084854545420043F44409B
:10021000203C4040207C1C2040201C3C4030403C86
:1002200044281028440C5050503C4464544C440022
:100230000836410000007F00000041360800080435
:10024000081008AED580D300408D142002A1C8D973
:10025000F1DB40A4A64E4F004F4B005343524F4C8E
:100260004C00435552534F520049444C450053747F
:100270006174653A2025537C424C453A2025530051
:100280000D066B07A007D50749087E081909E10983
:10029000610A440EE5100A1160110218470E051894
:1002A00011241FBECFEFD8E0DEBFCDBF11E0A0E02C
:1002B000B1E0EEE6FFE302C005900D92AE39B10762
:1002C000D9F722E0AEE9B1E001C01D92A339B2072F
:1002D000E1F711E0CEE4D1E004C02197FE010E94D5
:1002E0006C18C034D107C9F70E94F9120C94581F3A
:1002F0000C940000FC01A2EBB1E089E095E08D9345
:100300009D931D921D9282E019978C9319961D92D0
:100310001D921182108282818E7F82838D7F8283E3
:10032000858180788C638583168288E08783108638
:100330008185982F987F9187807C8860818714823F
:10034000138208950895FC01862F8150843060F453
:100350006770660F660F660F8185877C682B6187E3
:100360001482138281E0089582E590E09483838370
:1003700080E00895FF920F931F93CF93DF930F9226
:10038000CDB7DEB78C016983FC01808191816581E5
:100390006F7770E0FC010190F081E02D0084F18521
:1003A000E02D40E00995F82E8030F9F0F8018081C9
:1003B0009181FC010190F081E02D0680F781E02D14
:1003C00021E030E0AE014F5F5F4F60E00995F82E0D
:1003D0008030D1F0F801148213828F2D0F90DF91BD
:1003E000CF911F910F91FF900895F8018081918125
:1003F000FC010190F081E02D0684F785E02D099540
:10040000F80194838383E9CFF80180819181FC0115
:100410000190F081E02D0684F785E02D0995F80123
:1004200094838383DACFEF92FF920F931F93CF933E
:10043000DF938C017B01D42FC0E001C0CF5FCD17CB
:1004400050F4F701EC0FF11D6491C8010E94BA014C
:100450008111F4CF04C0F8011482138281E0DF918E
:10046000CF911F910F91FF90EF900895BF92CF927F
:10047000DF92EF92FF920F931F93CF93DF938C0144
:100480007B01D42EFC018081918165816F7770E0C2
:10049000FC010190F081E02D0084F185E02D40E029
:1004A0000995B82E803011F0C0E02EC0F80180818F
:1004B0009181FC010190F081E02D0684F785E02D0B
:1004C0000995F801948383838B2DDF91CF911F9140
:1004D0000F91FF90EF90DF90CF90BF900895F801BB
:1004E000808191812D2F30E0FC010190F081E02D81
:1004F0000680F781E02DA7014C0F511D60E409959E
:10050000C82E803049F0CD0FCD15B0F4DD2DDC1BA9
:10051000D13128F3D0E1E3CFF80180819181FC0152
:100520000190F081E02D0684F785E02D0995F80112
:1005300094838383BC2CC8CFF80114821382C4CF68
:100540000F931F93CF938C01C42F6770606B0E9431
:10055000BA01811104C0CF911F910F9108956C2FA2
:100560006F70C8010E94BA018030A9F36C2F6295A8
:100570006F706061C8010E94BA01803061F3F801B8
:1005800014821382E8CFAF92BF92CF92DF92EF92A4
:10059000FF920F931F93CF93DF93CDB7DEB768978A
:1005A0000FB6F894DEBF0FBECDBF8C01FC01E18415
:1005B0008E2D8695869586958770D82E962F6052BB
:1005C0006F3508F090E20F2EF0EEBF2EF02DB90E31
:1005D000F8012085E82EF12CC701880F991F8E0D98
:1005E0009F1D880F991F820F911D813890404CF0FC
:1005F00010868185982F97709D0D9770887F892B25
:100600008187F801818587708E0D9F2D911D27812F
:10061000281719061CF48185887F8187C12C4FC05B
:10062000E0E041C02F5F283000F58C2D90E0880F6E
:10063000991F880F991F880F991F820F911DB7016D
:100640000E9417188E2F90E002C0959587956A95A5
:10065000E2F780FFE7CF81E090E0022E02C0880F32
:10066000991F0A94E2F7A82ADDCF80E007C0FE01B7
:100670003196E40FF11DA0828F5F4F5F8D15B8F3A7
:100680003F5F353009F090F459F28B2D90E0FC017A
:10069000EE0FFF1FEE0FFF1FE80FF91FE30FF11D15
:1006A000E859FF4FE49120E0A12CBDCFBE016F5F60
:1006B0007F4FC8010E9436028030E1F0C394CD1410
:1006C00070F4F801818587708C0D682F4085C80112
:1006D0000E94A002803071F030E040E0D2CFF801FB
:1006E00090858D2D880F8D0D880F890F808714823E
:1006F000138281E068960FB6F894DEBF0FBECDBFBF
:10070000DF91CF911F910F91FF90EF90DF90CF90ED
:10071000BF90AF900895FC01928191FB882780F9EA
:1007200091FF03C014821382089526E030E03483E1
:1007300023830895CF92DF92EF92FF920F931F933E
:10074000CF93DF93CDB7DEB760970FB6F894DEBFD7
:100750000FBECDBF7C010E948B03C82E803089F173
:1007600080E006C0FE013196E80FF11D10828F5F18
:100770008031C0F3D12CF7018781D816E0F440E036
:100780006D2DC7010E94A0028030E1F010E80BC07F
:10079000012F402FBE016F5F7F4FC7010E943602BD
:1007A000803081F0101B103021F0113188F300E10E
:1007B000F0CFD394E0CF10868185887F8187148223
:1007C00013828C2D60960FB6F894DEBF0FBECDBF9E
:1007D000DF91CF911F910F91FF90EF90DF90CF901D
:1007E0000895EF92FF920F931F93CF93DF93EC0145
:1007F0008B01F42EE22E8A818E7F8A838D7F8A83FD
:1008000060307607B9F0FB010190F081E02D04849F
:10081000F585E02DCB010995059789F081EA90E0F7
:100820009C838B8380E0DF91CF911F910F91FF908C
:10083000EF90089582EA90E09C838B83F3CF198335
:1008400008838A8181608A839E2D9F778D8180783D
:10085000892B8D838F2DFE82811153C088E08F8379
:1008600018868985982F987F9987807C88608987EA
:100870008F2D811148C01FE302E142E163E472E081
:10088000CE010E941302803071F268EACE010E940C
:10089000BA01803041F2612FCE010E94BA0180304E
:1008A00009F4C1CF6AEDCE010E94BA01803009F48B
:1008B000BACF602FCE010E94BA01803009F4B3CFC5
:1008C00061E8CE010E94BA01803009F4ACCF6FEC30
:1008D000CE010E94BA01803009F4A5CF6FEACE01A3
:1008E0000E94BA01803009F49ECF8A8182608A8397
:1008F000CE010E949A03803009F495CF1C821B829E
:1009000092CF84E0ACCF1FE102E0B7CFFF920F930C
:100910001F93CF93DF938C01C62F0E948B038030EF
:1009200059F0C03079F060EA80ECF82EE801C80197
:100930000E94BA0181110AC0DF91CF911F910F91DE
:10094000FF90089561EA88ECF82EF0CF6F2DC80172
:100950000E94BA01803081F31C821B82EDCF0F937D
:100960001F93CF93DF93EC01162F042F0E948B036C
:100970008030A1F010306CF09F81091750F4188777
:10098000902F97702985287F922B99871C821B8234
:1009900005C082E590E09C838B8380E0DF91CF915E
:1009A0001F910F9108950F931F93CF93DF93EC0145
:1009B000162F0E948B03082F803019F11A30C9F4CA
:1009C00018869985892F8770292F26952695269533
:1009D0002770820F8770987F982B9987820F9927AD
:1009E000991F2F812817190654F48985887F8987D4
:1009F00006C0612FCE010E94C302803041F01C82EC
:100A00001B82802FDF91CF911F910F910895082FA6
:100A1000F8CF682F8091A8019091A9010E94D3047A
:100A200080E090E00895DF92EF92FF920F931F9382
:100A3000CF93DF938C017B010E948B03D82E8030F3
:100A4000F1F0E114FE0419F0C0E0D0E008C081E547
:100A500090E0F80194838383D12C11C02196F70193
:100A6000EC0FFD1F6081603039F0C8010E94D30493
:100A70008111F4CFD82E03C0F801148213828D2D7A
:100A8000DF91CF911F910F91FF90EF90DF9008952C
:100A90009F92AF92BF92CF92DF92EF92FF920F930D
:100AA0001F93CF93DF93CDB7DEB760970FB6F8945F
:100AB000DEBF0FBECDBF6C01162FF42EB22E0E94EA
:100AC0008B03A82E803021F11030E4F0F6018781ED
:100AD000982EF816B8F4B114A9F0003099F0E1148A
:100AE00051F19FEF0F0D212F2B0D3327331F21388D
:100AF00030401CF080E8811BB82E901608F0902E34
:100B000080E021C082E590E0F60194838383A12CEC
:100B10008A2D60960FB6F894DEBF0FBECDBFDF9171
:100B2000CF911F910F91FF90EF90DF90CF90BF90EA
:100B3000AF909F90089590E0D5CFFE013196E80FD9
:100B4000F11D90838F5F8031C0F3F91410F5412FB0
:100B50006F2DC6010E94A002803011F00B2D0DC038
:100B6000A82ED6CFE02E4E2DBE016F5F7F4FC6015F
:100B70000E943602803089F00E19003031F00131C8
:100B800088F36894EE24E4F8EECF8F2D8F5FF82E73
:100B9000DCCFF60114821382BBCFA82EB9CFFC01A3
:100BA00080818E7F80831282118283818E7F8383F6
:100BB00014821582168288E090E090878783818571
:100BC0008E7F8187089588EB91E00E94CF0508957C
:100BD00008951F920F920FB60F9211242F933F93F7
:100BE0004F935F936F937F938F939F93AF93BF9335
:100BF000EF93FF930E94E805FF91EF91BF91AF91B2
:100C00009F918F917F916F915F914F913F912F9124
:100C10000F900FBE0F901F9018950E94E305089546
:100C2000FC011182108213821282158214821682B4
:100C300017828085807F80878F7E808712861186CD
:100C400008950895CF93DF93FC01522FCB01839732
:100C5000099708F04CC0822F8150883008F04FC0AF
:100C6000842F820F9927991F09970CF04DC081E0BE
:100C700090E002C0880F991F2A95E2F70197042E91
:100C800002C0880F991F0A94E2F7EC019B012052E1
:100C90003040ABEABAEA0E940818DC01B695A79585
:100CA0008E7FA80FB91FCD01819691838083019615
:100CB00093838283029795838483C6834783808549
:100CC000806180875F70807F852B808791969C9163
:100CD0008C2F809589238C93A281B3819C918681EE
:100CE000809589238C931286118681E005C084E863
:100CF00090E09287818780E0DF91CF91089581E82D
:100D000090E092878187F7CF83E890E09287818790
:100D1000F2CFFC01908594FB882780F994FF17C0DF
:100D20006130D1F0623031F161110EC0A081B1812A
:100D30002C919681909592239C93A281B3812C91C2
:100D40009681909592239C9312861186089526E0B1
:100D500030E0328721870895A081B1812C9196815E
:100D6000909592239C93A281B3819C912681922B92
:100D70009C93EACFA081B1819C912681922B9C9378
:100D8000E3CFFC0111821082138212821582148239
:100D9000168287818E7F8783118610860895089535
:100DA000FC01CB018397099738F59B012052304015
:100DB000ABEABAEA0E9408189C01369527958E7F07
:100DC000820F931FBC016F5D7F4F9C012E5D3F4FD3
:100DD000718360833383228380969583848381E04B
:100DE00001C0880F4A95EAF78683878181608783EF
:100DF0001186108681E0089584E890E091878087CD
:100E000080E00895FC019781892F817090FF17C0C1
:100E10006130D1F0623031F161110EC0A081B18139
:100E20002C919681909592239C93A281B3812C91D1
:100E30009681909592239C9311861086089526E0C2
:100E400030E0318720870895A081B1812C9196816F
:100E5000909592239C93A281B3819C912681922BA1
:100E60009C93EACFA081B1819C912681922B9C9387
:100E7000E3CFFC0180818E7F8083128211821382F6
:100E8000089582EC91E00E943907089508951F9219
:100E90000F920FB60F9211242F933F934F935F93AE
:100EA0006F937F938F939F93AF93BF93EF93FF9332
:100EB0000E944607FF91EF91BF91AF919F918F9153
:100EC0007F916F915F914F913F912F910F900FBE46
:100ED0000F901F9018950E9441070895FC01808192
:100EE0008E7F8083128211821382089586EC91E0B6
:100EF0000E946E07089508951F920F920FB60F92E9
:100F000011242F933F934F935F936F937F938F930E
:100F10009F93AF93BF93EF93FF930E947B07FF9143
:100F2000EF91BF91AF919F918F917F916F915F9161
:100F30004F913F912F910F900FBE0F901F901895DA
:100F40000E9476070895FC0180818E7F8083128243
:100F50001182138208958AEC91E00E94A3070895FC
:100F600008951F920F920FB60F9211242F933F9363
:100F70004F935F936F937F938F939F93AF93BF93A1
:100F8000EF93FF930E94B007FF91EF91BF91AF9154
:100F90009F918F917F916F915F914F913F912F9191
:100FA0000F900FBE0F901F9018950E94AB070895E9
:100FB000FC0180818E7F80831282118213820895CA
:100FC0008EEC91E00E94D8070895FC01ACE6B0E0F9
:100FD0009C919078962B9C93638380818160808321
:100FE0001282118281E00895FC01962F917061FDBB
:100FF000926062FD946063FD986064FD906165FDA0
:10100000906266FF0FC09064413091F04230C9F0A9
:1010100041110AC087B19095892387B988B1892386
:1010200088B902C09111F0CF1282118281E0089537
:1010300027B1892F8095822387B988B1892B88B9F8
:10104000F3CF87B1892B87B9EFCF1F920F920FB6DD
:101050000F9211242F933F934F935F936F937F933E
:101060008F939F93AF93BF93EF93FF930E94941737
:10107000FF91EF91BF91AF919F918F917F916F9170
:101080005F914F913F912F910F900FBE0F901F9046
:1010900018950E94E0070895FC0180818E7F80836F
:1010A000128211821382089582ED91E00E944C0811
:1010B000089508951F920F920FB60F9211242F9347
:1010C0003F934F935F936F937F938F939F93AF93D0
:1010D000BF93EF93FF930E945908FF91EF91BF9147
:1010E000AF919F918F917F916F915F914F913F91C0
:1010F0002F910F900FBE0F901F9018950E945408CB
:101100000895FC0180818E7F808312821182138278
:101110001482089586ED91E00E9481080895FC01F3
:1011200094B525B59C7F277F862F8370892B962FBA
:1011300096959695990F990F990F922B987F942BCE
:1011400084BD95BD648343838081816080831282E6
:10115000118281E00895089508951F920F920FB6AD
:101160000F9211242F933F934F935F936F937F932D
:101170008F939F93AF93BF93EF93FF930E94D917E1
:10118000FF91EF91BF91AF919F918F917F916F915F
:101190005F914F913F912F910F900FBE0F901F9035
:1011A00018951F920F920FB60F9211242F933F9311
:1011B0004F935F936F937F938F939F93AF93BF935F
:1011C000EF93FF930E94AB08FF91EF91BF91AF9116
:1011D0009F918F917F916F915F914F913F912F914F
:1011E0000F900FBE0F901F9018951F920F920FB681
:1011F0000F9211242F933F934F935F936F937F939D
:101200008F939F93AF93BF93EF93FF930E94AC088C
:10121000FF91EF91BF91AF919F918F917F916F91CE
:101220005F914F913F912F910F900FBE0F901F90A4
:1012300018950E948A080895FC0180818E7F808322
:10124000128211821382148208958BED91E00E9424
:101250001C090895CF93DF93FC01C0E8D0E098818A
:10126000A1E8B0E02C919C7F277E862F8370892B8C
:10127000962F96959695990F990F990F922B987F87
:10128000942B88839C9364834383808181608083D3
:101290001282118281E0DF91CF910895089508951F
:1012A00008951F920F920FB60F9211242F933F9320
:1012B0004F935F936F937F938F939F93AF93BF935E
:1012C000EF93FF930E945009FF91EF91BF91AF916F
:1012D0009F918F917F916F915F914F913F912F914E
:1012E0000F900FBE0F901F9018951F920F920FB680
:1012F0000F9211242F933F934F935F936F937F939C
:101300008F939F93AF93BF93EF93FF930E944E09E8
:10131000FF91EF91BF91AF919F918F917F916F91CD
:101320005F914F913F912F910F900FBE0F901F90A3
:1013300018951F920F920FB60F9211242F933F937F
:101340004F935F936F937F938F939F93AF93BF93CD
:10135000EF93FF930E944F09FF91EF91BF91AF91DF
:101360009F918F917F916F915F914F913F912F91BD
:101370000F900FBE0F901F9018951F920F920FB6EF
:101380000F9211242F933F934F935F936F937F930B
:101390008F939F93AF93BF93EF93FF930E9480121D
:1013A000FF91EF91BF91AF919F918F917F916F913D
:1013B0005F914F913F912F910F900FBE0F901F9013
:1013C00018950E9425090895FC0180818E7F8083F5
:1013D0001282118213821482089580EE91E00E949D
:1013E000E40908950895089508951F920F920FB685
:1013F0000F9211242F933F934F935F936F937F939B
:101400008F939F93AF93BF93EF93FF930E94F20943
:10141000FF91EF91BF91AF919F918F917F916F91CC
:101420005F914F913F912F910F900FBE0F901F90A2
:1014300018951F920F920FB60F9211242F933F937E
:101440004F935F936F937F938F939F93AF93BF93CC
:10145000EF93FF930E94F309FF91EF91BF91AF913A
:101460009F918F917F916F915F914F913F912F91BC
:101470000F900FBE0F901F9018951F920F920FB6EE
:101480000F9211242F933F934F935F936F937F930A
:101490008F939F93AF93BF93EF93FF930E94F409B1
:1014A000FF91EF91BF91AF919F918F917F916F913C
:1014B0005F914F913F912F910F900FBE0F901F9012
:1014C00018950E94ED09089522E430E0FC01338371
:1014D000228380E0089522E430E0FC0133832283FC
:1014E00080E0089522E430E0FC013383228380E031
:1014F000089522E430E0FC013383228380E00895E4
:1015000022E430E0FC013383228380E0089522E46A
:1015100030E0FC013383228380E0089580E090E096
:101520000895FC01828193810895FC01CB019370A1
:10153000DC01262F220F84858170822B848767FB34
:10154000662760F985858E7F682B65878B2F837072
:10155000880F697F862B858740FB83F98587868185
:10156000816086831582148281E0089585E090E091
:101570000895FC01848195810895FC018AE091E041
:10158000918380838EE191E091838083108A178616
:1015900081898078818B8585982F9F709587968526
:1015A000987F9687118A9289907C928B948591700E
:1015B0009487982F9E7095878870858786818E7F07
:1015C000868314868D7F868388EF90E0918780875D
:1015D00084E190E0938782871782158615821482B2
:1015E000089586EE91E00E94BD0A08952EE131E053
:1015F000FC0131832083089586EE91E00E94F60A73
:101600000895BF92CF92DF92EF92FF920F931F93B4
:10161000CF93DF9300D000D0CDB7DEB78C016A0145
:101620007B01B22E19821A821B821C82ECEBF0E045
:1016300080818B7F808310821092B9001092B80055
:101640001092BA001092BD00483E83E05807610531
:10165000710508F48AC041385A416640704008F06C
:1016600098C02A3008F49BC0253608F09EC0F801C7
:1016700087859089009729F00E94991BF801108AAC
:1016800017868B2D90E061E070E002960E94E11ACF
:10169000F801908B8787892B09F48DC02B2D2E5F45
:1016A000B0FA882787F991899F77892B818B2695B6
:1016B0002F739289907C922B928B8078818B858579
:1016C0008F7085878685887F8687BE016F5F7F4F95
:1016D0008AE392E00E94471169817A818B819C8123
:1016E000A70196010E942B1829833A834B835C83C0
:1016F000DA01C9014097A040B04089839A83AB8347
:10170000BC83AC01BD017695679557954795498394
:101710005A836B837C83052E062A072AA1F04D3F4E
:1017200023E052076105710508F04AC0887F846094
:10173000B695A79597958795D8F7482FE9EBF0E0F0
:101740008081816080834093B8008FEF8093BB00DD
:10175000ECEBF0E0808184608083F8018485816017
:1017600084871582148281E006C082E790E0F80148
:101770009583848380E00F900F900F900F90DF91FE
:10178000CF911F910F91FF90EF90DF90CF90BF907E
:10179000089581E790E0F80195838483EBCF86E696
:1017A00090E0F80195838483E5CF85E690E0F80129
:1017B00095838483DFCF84E090E095838483DACFC0
:1017C000413F2FE052076105710570F4807E806112
:1017D000B695A79597958795D8F7482FE9EBF0E050
:1017E000808182608083AFCF413C5F436040704026
:1017F00070F480788064B695A79597958795D8F70B
:10180000482FE9EBF0E08081836080839CCF40E04B
:101810009ACF0F931F93DC011A968D919D911C977F
:10182000892BF9F08091440280FF11C0EAE3F2E0D5
:101830000385148525853685158A148A1A968D9117
:101840009D911C97080F191F211D311D18C086E09E
:1018500090E090934F0280934E0200E010E09801D8
:10186000EDCF0FEF1FEF98010AC086E090E0909354
:101870004F0280934E029091BC0090FF18C090914F
:10188000440290FFF2CFEAE3F2E043855485658598
:101890007685158A148A041715072607370758F71F
:1018A00089E090E014968D939D9380E004C0149697
:1018B0001D921D9281E01F910F910895FC01868178
:1018C0008D7F868388EF90E09187808785EA80937B
:1018D000BC001582148281E00895CF93DF93EC0160
:1018E0009E8191FB882780F991FF02C090E013C090
:1018F00024EA30E03D832C8312C0EF85F889292F3C
:1019000030E0D9011196260F371FEA0FFB1F5081D7
:10191000F90150839F5F941780F31D821C82DF9131
:10192000CF910895BF92CF92DF92EF92FF920F93E3
:101930001F93CF93DF93EC01D62EC42EB22E8C854D
:1019400080FBFF24F0F880FF18C0E11419F000308C
:10195000100711F1CE010E94090CF82E803089F099
:101960008C2D811147C0EF85F8898D2D880F8083DC
:10197000EF85F889B18220E024C086E090E09D8365
:101980008C838F2DDF91CF911F910F91FF90EF905E
:10199000DF90CF90BF90089581E590E09D838C8388
:1019A000F12CEFCF822F90E0EF85F889AC014E5FEC
:1019B0005F4FE40FF51F800F911FDC018C91808336
:1019C0002F5F2E1578F3E394E3948E2D8295807F1C
:1019D0009D859F70892B8D878E2D82958F70877046
:1019E0009E85987F892B8E87CE010E945E0C1D827A
:1019F0001C82C7CFEF85F8898D2D880F8083EF85F6
:101A0000F889B1828D858F7080628D878E85887F01
:101A10008E87CE010E945E0CCE010E94090C8111BE
:101A200002C0F82EAECFEF85F8898D2D880F81602A
:101A300080838E2D8F5F982F9295907F2D852F70AC
:101A4000922B9D8782958F7087709E85987F892BBA
:101A50008E87CE010E945E0CCE010E94090C81117E
:101A600002C0F82E8ECF4E2DB801CE010E946D0C13
:101A70008111BDCFF82E85CFEF920F931F93CF9397
:101A8000DF93EC019E81892F817090FF09C08D85C5
:101A900083FF10C085E090E09D838C8380E004C0CC
:101AA00027EA30E03D832C83DF91CF911F910F9186
:101AB000EF9008959C8596958D8580FB882787F902
:101AC000892BE22E8A01262F41E0682FCE010E9449
:101AD000920C803049F31D821C82E6CFEF920F9367
:101AE0001F93CF93DF93EC019E81892F817090FF2C
:101AF00009C08D8583FF10C085E090E09D838C83B5
:101B000080E004C027EA30E03D832C83DF91CF9151
:101B10001F910F91EF9008959C8596958D8580FB80
:101B2000882787F9892BE22E8A01262F40E0682F2B
:101B3000CE010E94920C803049F31D821C82E6CFB8
:101B4000FC019091B9009C7F983309F473C078F040
:101B50009035E1F1983509F45DC0903409F443C043
:101B60008091B900878384E08093BC000895983108
:101B700039F010F5983011F0903191F71092E5019D
:101B8000958592959F70868587708295807F892B39
:101B90009091E501981798F40784F089E02D892F3A
:101BA0008F5F8093E501E90FF11D80818093BB0079
:101BB00085E88093BC000895983211F3D1CF8681D7
:101BC0008260868384E98093BC0008959091BB0075
:101BD000A785B0898091E501282F2F5F2093E5012B
:101BE000A80FB11D9C932091E501958592959F705A
:101BF000868587708295807F892B8150990B281765
:101C0000190624F485EC8093BC00089585E8809340
:101C1000BC000895A785B0898091E501A80FB11D8A
:101C20008091BB008C9386818260868384E9809357
:101C3000BC00089585EA8093BC0008951F920F921E
:101C40000FB60F9211242F933F934F935F936F938F
:101C50007F938F939F93AF93BF93EF93FF9386EE02
:101C600091E00E94A00DFF91EF91BF91AF919F91E4
:101C70008F917F916F915F914F913F912F910F9035
:101C80000FBE0F901F9018950E94F10A08950E94B0
:101C9000FC0A08958F929F92AF92BF92DF92EF92CB
:101CA000FF920F931F93CF93DF93CDB7DEB72C979F
:101CB0000FB6F894DEBF0FBECDBF7C010091C0000F
:101CC0003091C1008091C2004091C4005091C50084
:101CD00019821A821B821C82F7019385913018F0B9
:101CE00019F4886001C0877F282F2F7CF701928527
:101CF000913021F0923021F4206202C08063282FBD
:101D0000832F8B7FD82E822F897FF7019481933088
:101D100081F030F4913059F0923069F484600BC056
:101D2000973049F43460D32E822F866004C08260DD
:101D300002C0822F8660017E182F1E73F701B580C6
:101D40009B2D983030F4EB2DF0E0EB59F04E0C94D5
:101D50006C18BB24B39404C002606894BB24B3F82D
:101D6000BE016F5F7F4F8AE392E00E944711F70147
:101D70002681378140855185AB2DB0E00E947218D5
:101D80009B01AC0169817A818B819C810E942B1817
:101D9000215030404040504049015A0160E070E01D
:101DA000CB012D833E834F83588769877A878B8742
:101DB0009C870093C000D092C1001093C2002D8177
:101DC0003E814F81588560E070E080E090E008E05F
:101DD0000E947F182F702093C5008092C400F701E5
:101DE0001382128281E02C960FB6F894DEBF0FBEEC
:101DF000CDBFDF91CF911F910F91FF90EF90DF90BA
:101E0000BF90AF909F908F9008951064A9CF1164F8
:101E10006894BB24B1F8A4CF8C73806C182F68949D
:101E2000BB24B1F89DCF126C6894BB24B1F898CF55
:101E30008D7F816C182F6894BB24B1F891CF836C8F
:101E4000182F6894BB24B1F88BCF6894BB24B4F8E6
:101E500087CFFC018081877F8083683030F083E406
:101E600090E09383828380E00895658313821282D9
:101E700081E00895FC018081877F8083403880E77E
:101E800058076105710509F458C0E8F5403C82E146
:101E900058076105710509F450C0E8F4483087E03F
:101EA00058076105710509F448C070F4483582E0AF
:101EB00058076105760709F440C0403B84E05807A5
:101EC00061057607D1F439C0403689E058076105CD
:101ED000760799F432C0403488E3580761057607E5
:101EE00061F140308BE458076407740731F14038E2
:101EF00085E258076105760701F180EA90E0938357
:101F0000828380E00895403082EC580781E06807C2
:101F1000710599F0D0F4403C8AED580761057607C9
:101F200061F0403081EE58076407740731F04030AB
:101F300086E958076407740701F74683578360876B
:101F400071871382128281E00895403084E8580737
:101F500083E06807740789F3403088EE580783E010
:101F60006807740751F3403084EF580781E0680731
:101F7000740719F6E2CFDC018C91877F8C93E62FF2
:101F8000E155EA3428F4F0E0E359F04E0C946C1873
:101F900089EA90E012968D939D9380E00895862FB4
:101FA0008370813041F0823021F18FEF9FEF1296E4
:101FB0008D939D93F2CF1B961C921B97862F86952F
:101FC000869583708130D1F08230E1F081111EC09E
:101FD0001A961C921A9762956F70673051F1E0F073
:101FE000683061F1693099F587E014968C93149705
:101FF00029C081E01B968C931B97E0CF1A968C9397
:102000001A97E9CF1A968C931A97E5CF8FEF9FEF27
:1020100012968D939D93C1CF653039F06630B9F437
:1020200081E014968C9314970DC014961C9214970B
:1020300009C082E014968C93149704C083E0149630
:102040008C93149712961D921D9281E008958FEF44
:102050009FEF12968D939D93A0CF0F931F93CF93D5
:10206000DF93EC01122F0E943A0F811105C0DF911E
:10207000CF911F910F910895612FCE010E94290FDA
:102080008030A9F3602FCE010E94BB0F803079F31E
:10209000E9EFF1E08DE690E1918780871386128663
:1020A00082E08383158614861B821A82E0CF0F9309
:1020B00001E820E040E855E260E070E087E092E06F
:1020C0000E942D100F9108958091C00085FFFCCFD4
:1020D0006093C60080E090E00895AB01682F809186
:1020E0001302909114020E946410089508950895B7
:1020F00008951F920F920FB60F9211242F933F93C2
:102100004F935F936F937F938F939F93AF93BF93FF
:10211000EF93FF930E947610FF91EF91BF91AF91E3
:102120009F918F917F916F915F914F913F912F91EF
:102130000F900FBE0F901F9018951F920F920FB621
:102140000F9211242F933F934F935F936F937F933D
:102150008F939F93AF93BF93EF93FF930E94781059
:10216000FF91EF91BF91AF919F918F917F916F916F
:102170005F914F913F912F910F900FBE0F901F9045
:1021800018951F920F920FB60F9211242F933F9321
:102190004F935F936F937F938F939F93AF93BF936F
:1021A000EF93FF930E947710FF91EF91BF91AF9152
:1021B0009F918F917F916F915F914F913F912F915F
:1021C0000F900FBE0F901F9018950E945710089502
:1021D000DC018C918E7F8D931D921D925F968C9168
:1021E0008E7F8C938D7F8C9384608D938EE190E0B5
:1021F0008D939D93959790E005C0FD01E90FF11D2A
:1022000013829F5F9F31C8F3089585E192E00E9499
:10221000E81008950E9405110895FC0182858E7FC3
:10222000828716821782108611861082118212828E
:102230001382158214821786108A118A128A1386D5
:1022400014861586168683898E7F838B40305407CB
:102250006407740771F040835183628373834683FC
:10226000578360877187828581608287158A148A87
:10227000089582E790E0958B848B089540E054E2C6
:1022800064EF70E08AE392E00E940D1108956030DF
:10229000760779F0FC012681378140855185FB0165
:1022A0002083318342835383FC01158A148A81E0A1
:1022B000089521E530E0FC01358B248B80E0089502
:1022C0000E943E11089589E892E00E94C1068EE7BF
:1022D00092E00E94100684E792E00E94C1068AE61E
:1022E00092E00E947A0108958AE692E00E94A2019B
:1022F00084E792E00E94CF068EE792E00E942106DA
:1023000089E892E00E94CF0608958EBD0DB407FEC5
:10231000FDCF8EB50895AF92BF92CF92DF92EF922C
:10232000FF921F93CF93DF935C016B017A01A6E7C5
:10233000B2E0ED91FD91908112968C918095892368
:10234000808310E00AC0F501EC0FFD1FCC0DDD1DF0
:1023500080810E94851188831F5FC12FD0E01E15E8
:102360001F0488F3A6E7B2E0ED91FD9180811296FB
:102370009C91892B8083DF91CF911F91FF90EF90EB
:10238000DF90CF90BF90AF900895EF92FF920F93A0
:10239000F70157E6508301839283838374836583B7
:1023A00042FB882780F94270840F86833783208719
:1023B00011861286138614861586168617860F9147
:1023C000FF90EF900895EF92FF920F931F93CF939A
:1023D000DF93EC01F7018081883609F08AC08181A2
:1023E00090E0D8018D939D93E280F12C00E010E005
:1023F0001E2D0027FF24EE24838190E0A0E0B0E0B2
:10240000DC0199278827E80EF91E0A1F1B1F84810B
:1024100090E0A0E0B0E0BA2FA92F982F8827E80E0F
:10242000F91E0A1F1B1F8581E80EF11C011D111DDD
:10243000DB01ED92FD920D931D93668170E080E0CB
:1024400090E0962F882777276627E780F12C00E019
:1024500010E08701FF24EE246E0D7F1D801F911F69
:10246000E084F12C00E010E0102F0F2DFE2CEE2464
:102470006E0D7F1D801F911F1185610F711D811DC4
:10248000911DDE016D937D938D939D93828590E0E8
:10249000A0E0B0E0B82FAA2799278827E384F12C81
:1024A00000E010E08701FF24EE248E0D9F1DA01F89
:1024B000B11FE484F12C00E010E0102F0F2DFE2C52
:1024C000EE248E0D9F1DA01FB11F6585860F911DE7
:1024D000A11DB11DEA0188839983AA83BB838685E8
:1024E00090E0982F88274785840F911DF9019183EB
:1024F0008083DF91CF911F910F91FF90EF9008950E
:102500008091640290916502A0916602B091670289
:102510000196A11DB11D8093640290936502A09362
:102520006602B09367020895F89440916402509156
:10253000650260916602709167022FB7F8948091EE
:102540008400909185002FBFB09B0EC08F3F9807ED
:1025500059F04F5F5F4F6F4F7F4F2FB7F8948091C7
:102560008400909185002FBF78946695BA01442726
:10257000552777956795579596958795480F591FD5
:10258000611D711DCB01BA010895F8944091640258
:102590005091650260916602709167022FB7F894BE
:1025A00080918400909185002FBFB09B0EC08F3F1B
:1025B000980759F04F5F5F4F6F4F7F4F2FB7F894D9
:1025C00080918400909185002FBF78947770786017
:1025D000440F551F661F771FD8F7892F99278695B7
:1025E00086958695480F591F611D711DCB01BA0153
:1025F0000895CDB7DEB7C155D0400FB6F894DEBF11
:102600000FBECDBF41E067E08EEC91E00E94F40781
:1026100067E08EEC91E00E94E5078BB382608BBB94
:10262000E8E6F0E080818260808323E040E068E2B9
:1026300070E08EE792E00E94220661E08EE792E071
:102640000E94890641E065E270E084E792E00E9422
:10265000D00662E084E792E00E940207E4E6F0E040
:1026600080818B7F808384B1846084B984B18860E9
:1026700084B984B18F7E84B984B1806284B981E5E4
:102680008CBD45E060E086ED91E00E948F088BE90B
:1026900087BD85B3826085BBEEE6F0E08081826015
:1026A000808342E060E08BED91E00E942A0986B3CE
:1026B000816086BBEFE6F0E080818160808387E007
:1026C00092E00E944A0E40E855E260E070E087E048
:1026D00092E00E943A0F69E887E092E00E94BB0F07
:1026E000E1ECF0E08081886080838081806180837C
:1026F000E2EAF1E089EF91E095838483938382831A
:1027000091838083789420E440E85AE166E070E0A9
:1027100086EE91E00E94010B2CE340E066EE71E052
:102720008AE692E00E94F10361E08AE692E00E946C
:1027300086048AE692E00E949A0319A21AA21BA2BA
:102740001CA21DA21EA21FA218A619A61AA61BA68D
:102750001CA61EA61DA681E090E098AB8FA78EE276
:1027600091E00E943C1C2B961CAE1DAE1EAE1FAE0F
:102770002B972F961CAE1DAE1EAE1FAE2F97312C81
:1027800010E0412C512C320162961FAE6297212C31
:1027900061961FAE1EAE6197F12E60C1109263026A
:1027A0000E94C512AB01BC0180E0AF2D18C0F8013A
:1027B000FF27082E02C0F595E7950A94E2F7E09509
:1027C000F095E170FF27082E02C0EE0FFF1F0A945C
:1027D000E2F7209156022E2B209356028F5F833012
:1027E000E8F5282F30E0F901EE0FFF1FEE0FFF1F75
:1027F000E95AFD4F80809180A280B3806A017B01FD
:10280000C818D908EA08FB0890E1C916D104E10408
:10281000F10400F1E0915602F0E0082E02C0F595B7
:10282000E7950A94E2F7E0FFC2CF98013327082E1C
:1028300002C0359527950A94E2F721703327082EB8
:1028400002C0220F331F0A94E2F72095909156029E
:102850002923C2CF91E090936302C0CFFA2E10C11A
:1028600080E090E01FC10E94C51228966FAF2897A4
:1028700029967FAF29972A968FAF2A972B969FAFDD
:102880002B971FC18AE692E00E949A0347E060E01E
:102890008AE692E00E94AF0461E08AE692E00E943C
:1028A000A3018FA598A9892B69F488E592E020916E
:1028B0005302309154022130304050F031F02BE57A
:1028C00032E008C085E592E0F2CF22E632E002C0B5
:1028D00029E632E09F938F933F932F938EE692E009
:1028E0009F938F938E010F5C1F4F1F930F930E9436
:1028F000681CB8018AE692E00E9413058DA19EA192
:10290000AFA1B8A50FB6F894DEBF0FBECDBF8E3F06
:102910002AE5920721E0A207B10594F4833025EA65
:1029200092072EEFA2072FEFB207F4F1BC01CD0101
:1029300022E835E040E050E00E944D18622F01C0CF
:102940006FE3262F27FD2195603011F00CF060E039
:10295000615CEE24E39401E040E08AE692E00E94AC
:10296000480547E060E08AE692E00E94AF0489A152
:102970009AA1ABA1BCA18E3F2AE5920721E0A20754
:10298000B105A4F4833025EA92072EEFA2072FEFBA
:10299000B207D4F1BC01CD0122E835E040E050E0BF
:1029A0000E944D18622F03C061ECCBCF6FE3262F3E
:1029B00027FD2195603011F00CF060E0615CEE24A1
:1029C000E39401E041E08AE692E00E94480589A58F
:1029D0009AA5ABA5BCA58E3F2AE5920721E0A207E8
:1029E000B105A4F4833025EA92072EEFA2072FEF5A
:1029F000B20704F1BC01CD0122E835E040E050E02F
:102A00000E944D18622F03C061ECD1CF6FE3262FD7
:102A100027FD2195603011F00CF060E0615CEE2440
:102A2000E39401E042E08AE692E00E9448051092B9
:102A300069024BC061ECEBCF89A19AA1ABA1BCA10B
:102A400081369A4EA040B0400CF48AC082E090E0FB
:102A50009093540280935302F0905602EEE7F2E016
:102A6000A481B5810C918681082310E0878102C082
:102A7000159507958A95E2F78091630281118ECEB4
:102A8000809156028F2580FF11C08091560280FFF1
:102A90000DC08091530290915402892B09F0E0CE31
:102AA00081E090E09093540280935302809156020B
:102AB0008F258670803029F08091560286708111B2
:102AC000D2CE809169028111DDCE00915302109126
:102AD00054020130110509F4AFCF0230110509F499
:102AE000FAC00030100709F0B7CF8091550280304E
:102AF00009F4B2CF109255023394832D853008F437
:102B0000ABCF6E018FEFC81AD80A760120E030E013
:102B100040E062966FAD6297722D61968EAD9FAD6B
:102B200061970E94C51180E1E80EF11C40E150E080
:102B3000B701C6010E948B118E01015D1F4F9E01DE
:102B4000235D3F4FAE01475D5F4FBE016F5D7F4F1D
:102B5000CE0185960E94E31110925502312C7CCF54
:102B60000E94C512DC01CB012B962CAD3DAD4EADC4
:102B70005FAD2B97821B930BA40BB50BC397A040A3
:102B8000B04008F462C0CDA0DEA0EFA0F8A40B2EE8
:102B9000BCE0CC0CDD1CEE1CFF1CBA95D1F7B02DAF
:102BA000C701B60120E137E240E050E00E944D1835
:102BB000122F032F60964FAF6097252E29A13AA1BF
:102BC0004BA15CA1A9E9B9E10E9472184B015C011B
:102BD00020E137E240E050E00E944D1880E1C81645
:102BE00087E2D806E104F1040CF467C0812F902F2E
:102BF0006096AFAD6097B22D9038A105B10524F075
:102C00008FEF9FE7A0E0B0E061969FAF8EAF619736
:102C100080E1881687E29806A104B1040CF452C042
:102C2000822F932FA42FB52F9038A105B10524F042
:102C30008FEF9FE7A0E0B0E02FEF3FE7281B390BB5
:102C4000C90162962FAF6297292E8091550280307C
:102C500009F402CF409156020091530210915402A0
:102C60006E018FEFC81AD80A760120E030E0629634
:102C70006FAD6297722D61968EAD9FAD61970E9488
:102C8000C51180E1E80EF11C40E150E0B701C6013A
:102C90000E948B118E01015D1F4F9E01235D3F4FEE
:102CA000AE01475D5F4FBE016F5D7F4FCE018596E0
:102CB0000E94E31110925502CFCE61961FAE1EAE58
:102CC0006197A6CF8FEF62968FAF62970F2EFFE7C7
:102CD0002F2EF02DBACF89A19AA1ABA1BCA180362D
:102CE0009A4EA040B0403CF481E090E090935402B2
:102CF00080935302B1CE0E9494122D962EAD3FAD1B
:102D00002D97621B730B8DA59EA528EE33E0281B23
:102D1000390B6901855D9340879710F4C12CD12C44
:102D20006C9DC0016D9D900D7C9D900D1124BC018A
:102D3000990F880B990B0E94C41920E034E244E7F4
:102D400059E40E9420199B01AC01C301B2010E9409
:102D5000AF182B013C010E9494122F966CAF7DAFEF
:102D60008EAF9FAF2F9780915502803009F474CEBB
:102D7000C114D10421F4812C912C54010AC00CF40B
:102D8000ACC00F2E812C912CF0E8AF2EFFE3BF2EAC
:102D9000F02D20E030E0A901C301B2010E946F1ABA
:102DA000803009F00CF4A2C0C301B20120E030E091
:102DB00040E85FE30E941B1980300CF49BC020E0C8
:102DC00030E040E85FE3C501B4010E94741A0E943C
:102DD0009219862E660F990840915602009153026F
:102DE000109154025E018FEFA81AB80A7501940180
:102DF00062966FAD6297722D61968EAD9FAD6197B1
:102E00000E94C51180E1E80EF11C40E150E0B701DD
:102E1000C5010E948B118E01015D1F4F9E01235D34
:102E20003F4FAE01475D5F4FBE016F5D7F4FCE01EB
:102E300085960E94E3112DA53EA5C9016AE070E0C8
:102E40000E941718009709F00CF465C09F928F92AA
:102E5000DF92CF929F938F93C9016AE070E00E9446
:102E600017187F936F938CA58F938BA58F938AA54B
:102E70008F9389A58F9388A58F938FA18F938EA110
:102E80008F938DA18F938CA18F938BA18F938AA108
:102E90008F9389A18F9388A98F938FA58F9383E4B4
:102EA00091E09F938F930E94261C20E030E040E247
:102EB00051E4C301B2010E9420199B01AC01C3017E
:102EC000B2010E94AE182B013C01109255020FB6C0
:102ED000F894DEBF0FBECDBFBFCD0F2E812C912C3D
:102EE000F0E8AF2EFFEBBF2EF02D53CFC301B201A0
:102EF00090585CCF20E030E0A901C301B2010E94EC
:102F00006F1A803021F01CF0A30192015CCFA30165
:102F10009201505858CF88279927821B930B6AE05B
:102F200070E00E94171892CF0F931F93CF93DF93F7
:102F3000EEE7F2E0A481B5818C919681892390E03F
:102F4000278102C0959587952A95E2F7082F10E012
:102F500010C00E94C512CC0FDD1FCC0FDD1FC95A57
:102F6000DD4F688379838A839B8381E0809363024A
:102F70001F5F1330C8F480915602C12FD0E0802724
:102F800090E0012E02C0959587950A94E2F780FDA6
:102F9000E0CFCC0FDD1FCC0FDD1FC95ADD4F1882EB
:102FA00019821A821B82E4CFDF91CF911F910F917A
:102FB0000895809152028F5F80935202813089F090
:102FC00080915102982F9F5F909351028A3071F047
:102FD00080915002982F9F5F90935002823361F04E
:102FE00008958093550210925202EACF81E08093B7
:102FF000690210925102ECCF81E080936802109236
:10300000500208950E94631108950E94741108955A
:10301000A29FB001B39FC001A39F700D811D112419
:10302000911DB29F700D811D1124911D089597FB74
:10303000072E16F4009407D077FD09D00E949A1845
:1030400007FC05D03EF4909581959F4F08957095AB
:1030500061957F4F0895A1E21A2EAA1BBB1BFD01AB
:103060000DC0AA1FBB1FEE1FFF1FA217B307E40767
:10307000F50720F0A21BB30BE40BF50B661F771FBF
:10308000881F991F1A9469F760957095809590959F
:103090009B01AC01BD01CF010895052E97FB1EF4E5
:1030A00000940E94641857FD07D00E942B1807FC5B
:1030B00003D04EF40C9464185095409530952195AA
:1030C0003F4F4F4F5F4F0895909580957095619554
:1030D0007F4F8F4F9F4F0895EE0FFF1F0590F49184
:1030E000E02D09940E940818A59F900DB49F900DA3
:1030F000A49F800D911D1124089597FD1094002E1A
:10310000083098F00850232F342F452F562F672F63
:10311000782F892F912DF4CF1594979587957795D2
:10312000679557954795379527950A95AAF71124DE
:10313000002D0895AA1BBB1B51E107C0AA1FBB1F8E
:10314000A617B70710F0A61BB70B881F991F5A9533
:10315000A9F780959095BC01CD0108955058BB27E3
:10316000AA270E94C6180C94351A0E94271A38F014
:103170000E942E1A20F039F49F3F19F426F40C9483
:10318000241A0EF4E095E7FB0C941E1AE92F0E9416
:10319000461A58F3BA17620773078407950720F099
:1031A00079F4A6F50C94681A0EF4E0950B2EBA2F5C
:1031B000A02D0B01B90190010C01CA01A00111243D
:1031C000FF27591B99F0593F50F4503E68F11A16E9
:1031D000F040A22F232F342F4427585FF3CF46957A
:1031E00037952795A795F0405395C9F77EF41F169C
:1031F000BA0B620B730B840BBAF09150A1F0FF0F66
:10320000BB1F661F771F881FC2F70EC0BA0F621F51
:10321000731F841F48F4879577956795B795F79541
:103220009E3F08F0B0CF9395880F08F09927EE0FD6
:103230009795879508950E94FA1908F481E00895FA
:103240000E9434190C94351A0E942E1A58F00E94CC
:10325000271A40F029F45F3F29F00C941E1A5111EF
:103260000C94691A0C94241A0E94461A68F3992344
:10327000B1F3552391F3951B550BBB27AA27621772
:103280007307840738F09F5F5F4F220F331F441F7F
:10329000AA1FA9F335D00E2E3AF0E0E832D09150B3
:1032A0005040E695001CCAF72BD0FE2F29D0660FA0
:1032B000771F881FBB1F261737074807AB07B0E8E3
:1032C00009F0BB0B802DBF01FF2793585F4F3AF0E9
:1032D0009E3F510578F00C941E1A0C94691A5F3FBA
:1032E000E4F3983ED4F3869577956795B795F7956F
:1032F0009F5FC9F7880F911D9695879597F9089557
:10330000E1E0660F771F881FBB1F621773078407F2
:10331000BA0720F0621B730B840BBA0BEE1F88F701
:10332000E09508950E9499196894B1110C94691A56
:1033300008950E944E1A88F09F5798F0B92F992748
:10334000B751B0F0E1F0660F771F881F991F1AF090
:10335000BA95C9F714C0B13091F00E94681AB1E073
:1033600008950C94681A672F782F8827B85F39F072
:10337000B93FCCF3869577956795B395D9F786F7DE
:103380000C946418E89404C097FB16F40E94641827
:103390009923A9F0F92F96E9BB279395F695879580
:1033A00077956795B795F111F8CFFAF4BB0F11F443
:1033B00060FF1BC06F5F7F4F8F4F9F4F16C08823EA
:1033C00011F096E911C0772321F09EE8872F762F20
:1033D00005C0662371F096E8862F70E060E02AF061
:1033E0009A95660F771F881FDAF7880F969587954D
:1033F00097F90895990F0008550FAA0BE0E8FEEF22
:1034000016161706E807F907C0F012161306E407A8
:10341000F50798F0621B730B840B950B39F40A26A1
:1034200061F0232B242B252B21F408950A2609F47F
:10343000A140A6958FEF811D811D089597F99F6783
:1034400080E870E060E008959FEF80EC089500242C
:103450000A941616170618060906089500240A94F9
:1034600012161306140605060895092E0394000C7F
:1034700011F4882352F0BB0F40F4BF2B11F460FF0E
:1034800004C06F5F7F4F8F4F9F4F089557FD905837
:10349000440F551F59F05F3F71F04795880F97FB18
:1034A000991F61F09F3F79F08795089512161306D2
:1034B0001406551FF2CF4695F1DF08C01616170601
:1034C0001806991FF1CF8695710561050894089536
:1034D000E894BB2766277727CB0197F908950E94C8
:1034E000FA1908F48FEF08950E94871A0C94351A80
:1034F0000E94271A38F00E942E1A20F0952311F00E
:103500000C941E1A0C94241A11240C94691A0E940B
:10351000461A70F3959FC1F3950F50E0551F629FB7
:10352000F001729FBB27F00DB11D639FAA27F00D1C
:10353000B11DAA1F649F6627B00DA11D661F829F43
:103540002227B00DA11D621F739FB00DA11D621F28
:10355000839FA00D611D221F749F3327A00D611D45
:10356000231F849F600D211D822F762F6A2F112427
:103570009F5750409AF0F1F088234AF0EE0FFF1F5A
:10358000BB1F661F771F881F91505040A9F79E3FB1
:10359000510580F00C941E1A0C94691A5F3FE4F3F5
:1035A000983ED4F3869577956795B795F795E79507
:1035B0009F5FC1F7FE2B880F911D9695879597F910
:1035C0000895CF92DF92EF92FF92CF93DF939C0109
:1035D000DB010E9408186B017C01C0E0D0E080E8AC
:1035E000D816E104F10458F4C6010E94071BEC014F
:1035F000009729F0A60160E070E00E941F1CCE0138
:10360000DF91CF91FF90EF90DF90CF9008950F93CF
:103610001F93CF93DF939C01029710F422E030E0D8
:10362000E0919E01F0919F0180E090E0DC013097F5
:1036300091F4009709F445C0821B930B84309105E7
:10364000B0F5DB0112968D919D91209759F18A83F7
:103650009B83FB010DC04081518102811381421780
:103660005307B8F089F4109751F012960D931C93FC
:103670003296CF01DF91CF911F910F910895009362
:103680009E0110939F01F4CF009751F048175907FE
:1036900038F0AC01DE01CA01ED01DF01F801C7CF4E
:1036A000BF01F9CF80939E0190939F01D2CFFB0180
:1036B000E80FF91F219331930297DB018D939D93BE
:1036C000D8CF4091A0015091A1014115510541F47D
:1036D00040910201509103014093A0015093A10138
:1036E0008091000190910101009741F48DB79EB740
:1036F0006091040170910501861B970B48175907CB
:1037000008F0B7CF841B950B8217930708F4B1CF4D
:10371000B9016E5F7F4F8617970708F4AACF640F31
:10372000751F6093A0017093A101FA012193319359
:10373000A0CFCF93DF930097E1F0DC011D921D92A3
:1037400014974D915D911297E0919E01F0919F0128
:10375000840F951F2091A0013091A10128173907EE
:1037600051F5A093A001B093A10180E090E03097C3
:1037700029F4DF91CF910895CF01F901228133819E
:1037800021153105C9F7EF01299139912C0F3D1F02
:10379000A217B30771F7009749F410929E01109297
:1037A0009F01E093A001F093A101E3CFDC01129609
:1037B0001D921D92F6CF20E030E0309731F4A093B7
:1037C0009E01B0939F01D5CFFB01EA17FB07F8F4E8
:1037D000628173819F0161157105B1F7E901AA83C7
:1037E000BB83F90141915191CF01840F951FA81717
:1037F000B90709F0BECF8D919D910296840F951F58
:10380000888399838D919D918A839B83B2CF1296F1
:10381000ED93FD931497E817F90769F44E5F5F4F36
:1038200080819181840F951F8D939D9382819381D7
:103830008D939D9314972115310581F6C0CFDC013E
:1038400001C06D9341505040E0F70895A0E0B0E012
:10385000ECE2FCE10C94311FAE014B5F5F4FFA01CB
:1038600061917191AF018091A4019091A5010E9495
:103870008C1CE2E00C944D1F0F931F93CF93DF93AA
:10388000E091A401F091A5012381EC0100E010E09A
:1038900021FD0EC00FEF1FEFC801DF91CF911F91E7
:1038A0000F91089521960995892B11F00FEF1FEFC5
:1038B00088816091A4017091A501DB011896ED91BA
:1038C000FD918111EFCF8AE00995892B29F3E2CF91
:1038D000AEE0B0E0EEE6FCE10C94311F8EE08C83AC
:1038E0002B893C8929833A838FEF9FE78D839E83C1
:1038F000AE01495E5F4F6D897E89CE0101960E94BF
:103900008C1CEF81F8852B893C89E20FF31F108214
:103910002E96E2E00C944D1FABE0B0E0E2E9FCE152
:103920000C94241F6C017B018A01FC011682178212
:10393000838181FFDFC13AE0532EF6012381F70135
:1039400023FD859123FF81917F01811509F437C102
:10395000853239F423FD959123FF91917F019532B2
:1039600029F4B60190E00E94931EE7CF30E0912C3D
:10397000612C712CF0E27F1640F59B32D9F058F49F
:103980009032D1F09332F1F09E3291F576FC17C16E
:10399000689476F806C09D3291F09033C1F4689433
:1039A00070F8F70123FD959123FF91917F0191110B
:1039B000E1CF28C0689471F8689472F8F2CF6894E7
:1039C00073F8EFCF689474F8ECCF77FC1BC080EDF0
:1039D000890F8A30C8F676FE05C0959C800D1124AB
:1039E000982EDFCF659C800D1124682E7F2AD9CFB9
:1039F0009C3619F4689477F8D4CF9C3409F445C008
:103A0000983679F2892F8F7D8554833008F43FC032
:103A1000933609F461C0933709F46BC0933509F408
:103A200077C0943619F0993609F0A4C0F80177FEF2
:103A30009AC061917191819191918F01272D2F767B
:103A4000822E97FF04C00E946418689487F82AE0C9
:103A500030E05E014FEFA41AB40AA5010E94C31E14
:103A6000782E7A1886FECFC0882D8E7F791408F0C4
:103A7000C9C084FE1DC182FC11C12EEE8222B92C68
:103A8000882D867809F4CBC00EC131E08ACF31157C
:103A900001F1085F1F4F8FE3898321E0822E912C73
:103AA0005E012FEFA21AB20AE89477F873FC03C004
:103AB00086149104F0F18114910409F041C061145D
:103AC00009F43BCFB60180E290E00E94931E6A9415
:103AD000F6CF0C5F1F4FDFCFF801808189830E5F27
:103AE0001F4F91E0892E912C5E01FFEFAF1ABF0AA4
:103AF000DBCFF801A190B1908F01692D70E076FCC9
:103B000002C06FEF7FEFC5010E94881E4C01CCCF31
:103B1000F801A190B1908F01692D70E076FC02C090
:103B20006FEF7FEFC5010E947D1E4C01689477F80E
:103B3000BDCFB60180E290E00E94931E6A94B8CF98
:103B4000F50177FC859177FE81915F01B60190E0E8
:103B50000E94931E81E0611001C080E0681AF1E0CC
:103B60008F1A9108A8CF61917191872F880F880BC8
:103B7000982F63CF9537C9F4872CE89484F82AE00E
:103B800030E0F80187FE39C0619171918191919186
:103B90008F015E01FFEFAF1ABF0AA5010E94C31E8D
:103BA000782E7A18E89487F85DCF872D897F882E44
:103BB000903799F058F49835A9F09F36D9F0F6016E
:103BC000868197812B96EFE00C94401F9837B9F7C8
:103BD00074FC05C020E130E0D4CF689484F8689488
:103BE00082F8F8CF74FE03C0E72DE6608E2E20E148
:103BF00032E0C7CF28E030E0C4CF6191719180E01E
:103C000090E0C6CF882EB72C84FE3ACFFE01E70D98
:103C1000F11D8081803309F044C049EE842283FC89
:103C20000EC080FE51C0972CB61418F4960C9B1849
:103C3000B62C862D8B196B1408F480E0B80EB614E0
:103C400008F044C06B1884FE43C0B60180E390E0E6
:103C50000E94931E82FE09C088E590E081FC02C0AC
:103C600088E790E0B6010E94931E7914E0F15E01AE
:103C70008FEFA81AB80A7A9482E0882E912C8C0EC5
:103C80009D1E870C911CF40182914F01B60190E0BA
:103C90000E94931E8A149B04B1F711CFB92C882E71
:103CA000B5CF82FC02C0B394BACFB394B394B7CF6C
:103CB000B92C882EE5CEB60180E290E00E94931EDA
:103CC000A394A614C0F3B5CFAB2CFBCF612CBBCF14
:103CD000882D867851F280E281FC8BE287FC8DE2B0
:103CE000B60190E0C0CFB60180E390E00E94931E41
:103CF0009A94BBCF8FEF9FEF65CFFC010590615089
:103D000070400110D8F7809590958E0F9F1F0895F1
:103D1000FC016150704001900110D8F7809590959A
:103D20008E0F9F1F08950F931F93CF93DF93182F2C
:103D3000092FEB018B8181FD09C00FEF1FEF812F50
:103D4000902FDF91CF911F910F91089582FF14C0A2
:103D50002E813F818C819D81281739073CF4E881B1
:103D6000F981CF0101968883998310838E819F8189
:103D700001968E839F83E3CFE885F985812F09958E
:103D8000892BA1F3DACFFA01AA27283051F120318B
:103D900081F1E8946F936E7F6E5F7F4F8F4F9F4FDF
:103DA000AF4FB1E03ED0B4E03CD0670F781F891F21
:103DB0009A1FA11D680F791F8A1F911DA11D6A0FEF
:103DC000711D811D911DA11D20D009F468943F91A2
:103DD0002AE0269F11243019305D3193DEF6CF01A1
:103DE0000895462F4770405D4193B3E00FD0C9F767
:103DF000F6CF462F4F70405D4A3318F0495D31FDD4
:103E00004052419302D0A9F7EACFB4E0A695979526
:103E1000879577956795BA95C9F7009761057105FC
:103E200008959B01AC010A2E069457954795379546
:103E30002795BA95C9F7620F731F841F951FA01DA0
:103E400008952F923F924F925F926F927F928F923E
:103E50009F92AF92BF92CF92DF92EF92FF920F9319
:103E60001F93CF93DF93CDB7DEB7CA1BDB0B0FB623
:103E7000F894DEBF0FBECDBF09942A8839884888E0
:103E80005F846E847D848C849B84AA84B984C88476
:103E9000DF80EE80FD800C811B81AA81B981CE0F6D
:103EA000D11D0FB6F894DEBF0FBECDBFED01089552
:103EB00011E0CEE4D1E004C0FE010E946C1821960E
:103EC000C035D107C9F7F894FFCF250FAC0E050F09
:103ED000070F0C0F130F180F1F0FCF0FCF0FC80FA7
:103EE000C80FCF0FCF0FC80FC80FCF0FCF0FC80FFE
:103EF000C80FC80FC80FC80FC80FCF0FCF0FC80FFC
:103F0000C80FCF0FCF0FC80FC80FCF0FCF0FC80FDD
:103F1000C80FC80FC80FC80FC80FCF0FCF0FC80FDB
:103F2000C80FCF0FCF0FC80FC80FCF0FCF0FC80FBD
:103F3000C80FC80FC80FC80FC80FCF0FCF0FC80FBB
:103F4000C80FCF0FCF0FC80FC80FCF0FCF0FC80F9D
:103F5000C80FC80FC80FC80FC80FCF0FCF0FC80F9B
:0E3F6000C80FCF0FCF0FC80FC80FCF0FCF0F56
:103F6E0000009302200000000000640A6B0A720A2F
:103F7E00790A800A870A8E0A910A000000003C0D19
:103F8E006B0A720A6E0D950A870AB60AB90A496E4D
:103F9E00696369616C697A616E646F2041746D65E5
:103FAE0067610053746174653A202575202050694D
:103FBE007463683A20256C692020526F6C6C3A202D
:103FCE00256C6920205961773A20256C6920416360
:103FDE0063656C5F783A2025642E25752044656CE8
:103FEE0074613A2025642053454E44494E473A2089
:0E3FFE005343524F4C4C3A2025640D0A0000EC
:00000001FF
