:100000000C9444000C94E6010C941B020C945002D6
:100010000C94C4020C94F9020C946C000C9494049B
:100020000C94B8040C94DC040C94F0030C941404A9
:100030000C9438040C945C040C944C030C947003E2
:100040000C9494030C946C000C94100A0C94580AB1
:100050000C94340A0C9488000C946C000C946C0082
:100060000C94B5070C946C00AC000A023F027402B9
:10007000E8021D03B80380040005DB077C0AA10A1F
:10008000F70A340EDE07370E11241FBECFEFD8E07B
:10009000DEBFCDBF11E0A0E0B1E0ECE6F4E202C0CB
:1000A00005900D92A438B107D9F722E0A4E8B1E099
:1000B00001C01D92A535B207E1F710E0C2E4D0E01F
:1000C00004C02197FE010E947F0EC433D107C9F7F7
:1000D0000E94A70B0C94D7110C940000FC018081A6
:1000E0008E7F80831282118283818E7F838314822C
:1000F0001582168288E090E09087878381858E7FC5
:10010000818708958AE891E00E946E00089508951D
:100110001F920F920FB60F9211242F933F934F937C
:100120005F936F937F938F939F93AF93BF93EF935F
:10013000FF930E948700FF91EF91BF91AF919F9134
:100140008F917F916F915F914F913F912F910F9080
:100150000FBE0F901F9018950E9482000895FC0119
:1001600011821082138212821582148216821782E3
:100170008085807F80878F7E808712861186089594
:100180000895CF93DF93FC01522FCB0183970997FA
:1001900008F04CC0822F8150883008F04FC0842F67
:1001A000820F9927991F09970CF04DC081E090E0CC
:1001B00002C0880F991F2A95E2F70197042E02C00A
:1001C000880F991F0A94E2F7EC019B0120523040FE
:1001D000ABEABAEA0E943A0EDC01B695A7958E7F8B
:1001E000A80FB91FCD0181969183808301969383D7
:1001F0008283029795838483C68347838085806149
:1002000080875F70807F852B808791969C918C2F53
:10021000809589238C93A281B3819C91868180955E
:1002200089238C931286118681E005C084E890E0D2
:100230009287818780E0DF91CF91089581E890E0F7
:1002400092878187F7CF83E890E092878187F2CF0A
:10025000FC01908594FB882780F994FF17C06130DA
:10026000D1F0623031F161110EC0A081B1812C91C9
:100270009681909592239C93A281B3812C91968133
:10028000909592239C9312861186089526E030E083
:10029000328721870895A081B1812C919681909514
:1002A00092239C93A281B3819C912681922B9C9353
:1002B000EACFA081B1819C912681922B9C93E3CFC0
:1002C000FC0111821082138212821582148216821E
:1002D00087818E7F87831186108608950895FC019B
:1002E000CB018397099738F59B0120523040ABEA48
:1002F000BAEA0E943A0E9C01369527958E7F820FAE
:10030000931FBC016F5D7F4F9C012E5D3F4F71833A
:1003100060833383228380969583848381E001C048
:10032000880F4A95EAF786838781816087831186E3
:10033000108681E0089584E890E09187808780E0CE
:100340000895FC019781892F817090FF17C061305B
:10035000D1F0623031F161110EC0A081B1812C91D8
:100360009681909592239C93A281B3812C91968142
:10037000909592239C9311861086089526E030E094
:10038000318720870895A081B1812C919681909525
:1003900092239C93A281B3819C912681922B9C9362
:1003A000EACFA081B1819C912681922B9C93E3CFCF
:1003B000FC0180818E7F80831282118213820895D6
:1003C00084E991E00E94D801089508951F920F9248
:1003D0000FB60F9211242F933F934F935F936F9318
:1003E0007F938F939F93AF93BF93EF93FF930E945D
:1003F000E501FF91EF91BF91AF919F918F917F9117
:100400006F915F914F913F912F910F900FBE0F9081
:100410001F9018950E94E0010895FC0180818E7F55
:100420008083128211821382089588E991E00E94EC
:100430000D02089508951F920F920FB60F92112486
:100440002F933F934F935F936F937F938F939F93DC
:10045000AF93BF93EF93FF930E941A02FF91EF9126
:10046000BF91AF919F918F917F916F915F914F91CC
:100470003F912F910F900FBE0F901F9018950E94E3
:1004800015020895FC0180818E7F80831282118283
:10049000138208958CE991E00E9442020895089524
:1004A0001F920F920FB60F9211242F933F934F93E9
:1004B0005F936F937F938F939F93AF93BF93EF93CC
:1004C000FF930E944F02FF91EF91BF91AF919F91D7
:1004D0008F917F916F915F914F913F912F910F90ED
:1004E0000FBE0F901F9018950E944A020895FC01BC
:1004F00080818E7F8083128211821382089580EA28
:1005000091E00E9477020895FC01ACE6B0E09C9176
:100510009078962B9C936383808181608083128284
:10052000118281E00895FC01962F917061FD926027
:1005300062FD946063FD986064FD906165FD90626A
:1005400066FF0FC09064413091F04230C9F0411114
:100550000AC087B19095892387B988B1892388B962
:1005600002C09111F0CF1282118281E0089527B16B
:10057000892F8095822387B988B1892B88B9F3CFD9
:1005800087B1892B87B9EFCF1F920F920FB60F92C9
:1005900011242F933F934F935F936F937F938F9388
:1005A0009F93AF93BF93EF93FF930E94D70DFF915B
:1005B000EF91BF91AF919F918F917F916F915F91DB
:1005C0004F913F912F910F900FBE0F901F90189554
:1005D0000E947F020895FC0180818E7F80831282B9
:1005E00011821382089584EA91E00E94EB0208953B
:1005F00008951F920F920FB60F9211242F933F93DD
:100600004F935F936F937F938F939F93AF93BF931A
:10061000EF93FF930E94F802FF91EF91BF91AF918A
:100620009F918F917F916F915F914F913F912F910A
:100630000F900FBE0F901F9018950E94F30208951F
:10064000FC0180818E7F808312821182138214824A
:10065000089588EA91E00E9420030895FC0194B572
:1006600025B59C7F277F862F8370892B962F9695A3
:100670009695990F990F990F922B987F942B84BD83
:1006800095BD64834383808181608083128211825F
:1006900081E00895089508951F920F920FB60F926A
:1006A00011242F933F934F935F936F937F938F9377
:1006B0009F93AF93BF93EF93FF930E94200EFF9100
:1006C000EF91BF91AF919F918F917F916F915F91CA
:1006D0004F913F912F910F900FBE0F901F90189543
:1006E0001F920F920FB60F9211242F933F934F93A7
:1006F0005F936F937F938F939F93AF93BF93EF938A
:10070000FF930E944A03FF91EF91BF91AF919F9198
:100710008F917F916F915F914F913F912F910F90AA
:100720000FBE0F901F9018951F920F920FB60F9249
:1007300011242F933F934F935F936F937F938F93E6
:100740009F93AF93BF93EF93FF930E944B03FF914F
:10075000EF91BF91AF919F918F917F916F915F9139
:100760004F913F912F910F900FBE0F901F901895B2
:100770000E9429030895FC0180818E7F808312826C
:1007800011821382148208958DEA91E00E94BB03C6
:100790000895CF93DF93FC01C0E8D0E09881A1E8F1
:1007A000B0E02C919C7F277E862F8370892B962F1B
:1007B00096959695990F990F990F922B987F942B58
:1007C00088839C93648343838081816080831282C9
:1007D000118281E0DF91CF910895089508950895E1
:1007E0001F920F920FB60F9211242F933F934F93A6
:1007F0005F936F937F938F939F93AF93BF93EF9389
:10080000FF930E94EE03FF91EF91BF91AF919F91F3
:100810008F917F916F915F914F913F912F910F90A9
:100820000FBE0F901F9018951F920F920FB60F9248
:1008300011242F933F934F935F936F937F938F93E5
:100840009F93AF93BF93EF93FF930E941C0EFF9172
:10085000EF91BF91AF919F918F917F916F915F9138
:100860004F913F912F910F900FBE0F901F901895B1
:100870001F920F920FB60F9211242F933F934F9315
:100880005F936F937F938F939F93AF93BF93EF93F8
:10089000FF930E94ED03FF91EF91BF91AF919F9164
:1008A0008F917F916F915F914F913F912F910F9019
:1008B0000FBE0F901F9018951F920F920FB60F92B8
:1008C00011242F933F934F935F936F937F938F9355
:1008D0009F93AF93BF93EF93FF930E94EF03FF911A
:1008E000EF91BF91AF919F918F917F916F915F91A8
:1008F0004F913F912F910F900FBE0F901F90189521
:100900000E94C4030895FC0180818E7F808312823F
:10091000118213821482089582EB91E00E94830475
:1009200008950895089508951F920F920FB60F929B
:1009300011242F933F934F935F936F937F938F93E4
:100940009F93AF93BF93EF93FF930E949104FF9106
:10095000EF91BF91AF919F918F917F916F915F9137
:100960004F913F912F910F900FBE0F901F901895B0
:100970001F920F920FB60F9211242F933F934F9314
:100980005F936F937F938F939F93AF93BF93EF93F7
:10099000FF930E949204FF91EF91BF91AF919F91BD
:1009A0008F917F916F915F914F913F912F910F9018
:1009B0000FBE0F901F9018951F920F920FB60F92B7
:1009C00011242F933F934F935F936F937F938F9354
:1009D0009F93AF93BF93EF93FF930E949304FF9174
:1009E000EF91BF91AF919F918F917F916F915F91A7
:1009F0004F913F912F910F900FBE0F901F90189520
:100A00000E948C04089522E430E0FC0133832283A9
:100A100080E0089522E430E0FC013383228380E00B
:100A2000089522E430E0FC013383228380E00895BE
:100A300022E430E0FC013383228380E0089522E445
:100A400030E0FC013383228380E0089522E430E02B
:100A5000FC013383228380E0089580E090E00895D4
:100A6000FC01828193810895FC01CB019370DC012C
:100A7000262F220F84858170822B848767FB66274F
:100A800060F985858E7F682B65878B2F8370880F33
:100A9000697F862B858740FB83F985878681816006
:100AA00086831582148281E0089585E090E00895A0
:100AB000FC01848195810895FC0184E091E091839B
:100AC000808388E191E091838083108A17868189F1
:100AD0008078818B8585982F9F7095879685987FE4
:100AE0009687118A9289907C928B948591709487D5
:100AF000982F9E7095878870858786818E7F8683E4
:100B000014868D7F868388EF90E09187808784E1CB
:100B100090E0938782871782158615821482089544
:100B200088EB91E00E945C05089528E131E0FC012A
:100B300031832083089588EB91E00E949505089504
:100B40000F931F93DC011A968D919D911C97892B11
:100B5000F9F08091150280FF11C0EBE0F2E003850F
:100B6000148525853685158A148A1A968D919D914E
:100B70001C97080F191F211D311D18C086E090E039
:100B80009093200280931F0200E010E09801EDCFC7
:100B90000FEF1FEF98010AC086E090E090932002CB
:100BA00080931F029091BC0090FF18C09091150295
:100BB00090FFF2CFEBE0F2E04385548565857685C2
:100BC000158A148A041715072607370758F789E08E
:100BD00090E014968D939D9380E004C014961D922E
:100BE0001D9281E01F910F910895FC0186818D7FF8
:100BF000868388EF90E09187808785EA8093BC00A8
:100C00001582148281E00895CF93DF93EC019E81D9
:100C100091FB882780F991FF02C090E013C024EA7D
:100C200030E03D832C8312C0EF85F889292F30E016
:100C3000D9011196260F371FEA0FFB1F5081F901CA
:100C400050839F5F941780F31D821C82DF91CF91A8
:100C50000895BF92CF92DF92EF92FF920F931F936E
:100C6000CF93DF93EC01D62EC42EB22E8C8580FB61
:100C7000FF24F0F880FF18C0E11419F000301007CD
:100C800011F1CE010E94A005F82E803089F08C2D44
:100C9000811147C0EF85F8898D2D880F8083EF85FE
:100CA000F889B18220E024C086E090E09D838C83A7
:100CB0008F2DDF91CF911F910F91FF90EF90DF90DB
:100CC000CF90BF90089581E590E09D838C83F12CB7
:100CD000EFCF822F90E0EF85F889AC014E5F5F4F38
:100CE000E40FF51F800F911FDC018C9180832F5F33
:100CF0002E1578F3E394E3948E2D8295807F9D8565
:100D00009F70892B8D878E2D82958F7087709E8521
:100D1000987F892B8E87CE010E94F5051D821C824B
:100D2000C7CFEF85F8898D2D880F8083EF85F889EF
:100D3000B1828D858F7080628D878E85887F8E874A
:100D4000CE010E94F505CE010E94A005811102C0CE
:100D5000F82EAECFEF85F8898D2D880F81608083C6
:100D60008E2D8F5F982F9295907F2D852F70922BCF
:100D70009D8782958F7087709E85987F892B8E873F
:100D8000CE010E94F505CE010E94A005811102C08E
:100D9000F82E8ECF4E2DB801CE010E94040681118F
:100DA000BDCFF82E85CFEF920F931F93CF93DF9394
:100DB000EC019E81892F817090FF09C08D8583FF92
:100DC00010C085E090E09D838C8380E004C027EA1A
:100DD00030E03D832C83DF91CF911F910F91EF90F5
:100DE00008959C8596958D8580FB882787F9892BAA
:100DF000E22E8A01262F41E0682FCE010E942906AB
:100E0000803049F31D821C82E6CFEF920F931F932F
:100E1000CF93DF93EC019E81892F817090FF09C0F1
:100E20008D8583FF10C085E090E09D838C8380E0FA
:100E300004C027EA30E03D832C83DF91CF911F91DE
:100E40000F91EF9008959C8596958D8580FB88275E
:100E500087F9892BE22E8A01262F40E0682FCE01E8
:100E60000E942906803049F31D821C82E6CFFC01D6
:100E70009091B9009C7F983309F473C078F0903555
:100E8000E1F1983509F45DC0903409F443C08091D4
:100E9000B900878384E08093BC000895983139F0CD
:100EA00010F5983011F0903191F71092B7019585B7
:100EB00092959F70868587708295807F892B90910F
:100EC000B701981798F40784F089E02D892F8F5F78
:100ED0008093B701E90FF11D80818093BB0085E805
:100EE0008093BC000895983211F3D1CF868182603F
:100EF000868384E98093BC0008959091BB00A78508
:100F0000B0898091B701282F2F5F2093B701A80FD8
:100F1000B11D9C932091B701958592959F70868510
:100F200087708295807F892B8150990B281719062D
:100F300024F485EC8093BC00089585E88093BC0080
:100F40000895A785B0898091B701A80FB11D809140
:100F5000BB008C9386818260868384E98093BC0089
:100F6000089585EA8093BC0008951F920F920FB6F2
:100F70000F9211242F933F934F935F936F937F931F
:100F80008F939F93AF93BF93EF93FF9388EB91E081
:100F90000E943707FF91EF91BF91AF919F918F9181
:100FA0007F916F915F914F913F912F910F900FBE65
:100FB0000F901F9018950E94900508950E949B0520
:100FC00008958F929F92AF92BF92DF92EF92FF921D
:100FD0000F931F93CF93DF93CDB7DEB72C970FB648
:100FE000F894DEBF0FBECDBF7C010091C0003091F0
:100FF000C1008091C2004091C4005091C500198287
:101000001A821B821C82F7019385913018F019F423
:10101000886001C0877F282F2F7CF701928591304F
:1010200021F0923021F4206202C08063282F832FA8
:101030008B7FD82E822F897FF7019481933081F0A6
:1010400030F4913059F0923069F484600BC09730DD
:1010500049F43460D32E822F866004C0826002C0BF
:10106000822F8660017E182F1E73F701B5809B2D9D
:10107000983030F4EB2DF0E0EC51FE4E0C947F0EE6
:10108000BB24B39404C002606894BB24B3F8BE01CF
:101090006F5F7F4F8BE092E00E94DE0AF7012681AE
:1010A000378140855185AB2DB0E00E94850E9B01B4
:1010B000AC0169817A818B819C810E945D0E2150F7
:1010C00030404040504049015A0160E070E0CB019F
:1010D0002D833E834F83588769877A878B879C87C8
:1010E0000093C000D092C1001093C2002D813E81B8
:1010F0004F81588560E070E080E090E008E00E9459
:10110000920E2F702093C5008092C400F7011382C5
:10111000128281E02C960FB6F894DEBF0FBECDBFD1
:10112000DF91CF911F910F91FF90EF90DF90BF90D3
:10113000AF909F908F9008951064A9CF1164689428
:10114000BB24B1F8A4CF8C73806C182F6894BB2497
:10115000B1F89DCF126C6894BB24B1F898CF8D7F05
:10116000816C182F6894BB24B1F891CF836C182F31
:101170006894BB24B1F88BCF6894BB24B4F887CFB4
:10118000FC018081877F8083683030F083E490E0C9
:101190009383828380E0089565831382128281E0C5
:1011A0000895FC018081877F8083403880E758075D
:1011B0006105710509F458C0E8F5403C82E1580723
:1011C0006105710509F450C0E8F4483087E058071C
:1011D0006105710509F448C070F4483582E058078C
:1011E0006105760709F440C0403B84E0580761057B
:1011F0007607D1F439C0403689E058076105760793
:1012000099F432C0403488E358076105760761F1EC
:1012100040308BE458076407740731F1403885E2A9
:1012200058076105760701F180EA90E09383828395
:1012300080E00895403082EC580781E0680771052E
:1012400099F0D0F4403C8AED58076105760761F0CB
:10125000403081EE58076407740731F0403086E96A
:1012600058076407740701F74683578360877187BF
:101270001382128281E00895403084E8580783E0A9
:101280006807740789F3403088EE580783E06807E1
:10129000740751F3403084EF580781E06807740702
:1012A00019F6E2CFDC018C91877F8C93E62FE15514
:1012B000EA3428F4F0E0E451FE4E0C947F0E89EA03
:1012C00090E012968D939D9380E00895862F837011
:1012D000813041F0823021F18FEF9FEF12968D9394
:1012E0009D93F2CF1B961C921B97862F8695869511
:1012F00083708130D1F08230E1F081111EC01A96E6
:101300001C921A9762956F70673051F1E0F0683067
:1013100061F1693099F587E014968C93149729C090
:1013200081E01B968C931B97E0CF1A968C931A97AB
:10133000E9CF1A968C931A97E5CF8FEF9FEF12960D
:101340008D939D93C1CF653039F06630B9F481E05B
:1013500014968C9314970DC014961C92149709C080
:1013600082E014968C93149704C083E014968C93B7
:10137000149712961D921D9281E008958FEF9FEFB2
:1013800012968D939D93A0CF0F931F93CF93DF93CE
:10139000EC01122F0E94D108811105C0DF91CF917D
:1013A0001F910F910895612FCE010E94C0088030D7
:1013B000A9F3602FCE010E945209803079F3EBEC43
:1013C000F1E084E09AE0918780871386128682E0BC
:1013D0008383158614861B821A82E0CF0F9301E85F
:1013E00020E040E855E260E070E089ED91E00E9485
:1013F000C4090F9108958091C00085FFFCCF6093D0
:10140000C60080E090E00895AB01682F8091E5016F
:101410009091E6010E94FB090895089508950895AA
:101420001F920F920FB60F9211242F933F934F9359
:101430005F936F937F938F939F93AF93BF93EF933C
:10144000FF930E940D0AFF91EF91BF91AF919F9181
:101450008F917F916F915F914F913F912F910F905D
:101460000FBE0F901F9018951F920F920FB60F92FC
:1014700011242F933F934F935F936F937F938F9399
:101480009F93AF93BF93EF93FF930E940F0AFF9137
:10149000EF91BF91AF919F918F917F916F915F91EC
:1014A0004F913F912F910F900FBE0F901F90189565
:1014B0001F920F920FB60F9211242F933F934F93C9
:1014C0005F936F937F938F939F93AF93BF93EF93AC
:1014D000FF930E940E0AFF91EF91BF91AF919F91F0
:1014E0008F917F916F915F914F913F912F910F90CD
:1014F0000FBE0F901F9018950E94EE090895DC0111
:101500008C918E7F8D931D921D925E968C918E7F15
:101510008C938D7F8C9384608D938EE190E08D937E
:101520009D93949790E005C0FD01E90FF11D138292
:101530009F5F9E31C8F3089587EE91E00E947F0A75
:1015400008950E949C0A0895FC0182858E7F8287FF
:1015500016821782108611861082118212821382DF
:10156000158214821786108A118A128A13861486AD
:101570001586168683898E7F838B403054076407D7
:10158000740771F04083518362837383468357836A
:1015900060877187828581608287158A148A0895A1
:1015A00082E790E0958B848B089540E054E264EFED
:1015B00070E08BE092E00E94A40A08956030760704
:1015C00079F0FC012681378140855185FB0120831C
:1015D000318342835383FC01158A148A81E0089584
:1015E00021E530E0FC01358B248B80E008950E94DA
:1015F000D50A08958BE492E00E94600180E492E0B5
:101600000E94AF0086E392E00E946001089586E3A5
:1016100092E00E946E0180E492E00E94C0008BE4A0
:1016200092E00E946E0108958EBD0DB407FEFDCFBD
:101630008EB50895AF92BF92CF92DF92EF92FF9254
:101640001F93CF93DF935C016B017A01A8E3B2E0B3
:10165000ED91FD91908112968C91809589238083E4
:1016600010E00AC0F501EC0FFD1FCC0DDD1D8081DF
:101670000E94140B88831F5FC12FD0E01E151F042A
:1016800088F3A8E3B2E0ED91FD91808112969C91E0
:10169000892B8083DF91CF911F91FF90EF90DF9096
:1016A000CF90BF90AF900895EF92FF920F93F70104
:1016B00057E650830183928383837483658342FB5F
:1016C000882780F94270840F8683378320871186AC
:1016D0000F91FF90EF9008950F931F93CF93DF9397
:1016E000F801A381A83619F5A081B0E0E901B9831A
:1016F000A883218130E0322F2227A2812A0F311DB9
:10170000DB012D933D93248130E0322F2227658128
:10171000260F311DDC012D933D93868190E0982F9B
:1017200088272781820F911DFA0191838083DF91A1
:10173000CF911F910F910895F894609132027091AA
:101740003302809134029091350278940895CDB798
:10175000DEB76C970FB6F894DEBF0FBECDBF41E089
:1017600067E080EA91E00E94930267E080EA91E0FE
:101770000E9484028BB382608BBBE8E6F0E080813C
:101780008260808323E040E068E270E080E492E0E1
:101790000E94C10061E080E492E00E94280141E0E3
:1017A00065E270E086E392E00E946F0162E086E30A
:1017B00092E00E94A101E4E6F0E080818B7F8083CB
:1017C00084B1846084B984B1886084B984B18F7E27
:1017D00084B984B1806284B981E58CBD43E062E064
:1017E00088EA91E00E942E0389EF87BD85B382606D
:1017F00085BBEEE6F0E080818260808343E064E0B8
:101800008DEA91E00E94C9038FB7F89428E833E18C
:1018100030938900209388008FBF86B3826086BB97
:10182000EFE6F0E080818260808389ED91E00E94A4
:10183000E10740E855E260E070E089ED91E00E9448
:10184000D10869E889ED91E00E945209E1ECF0E0ED
:10185000808188608083808180618083E4E8F1E01A
:101860008BEC91E09583848393838283918380833F
:1018700078941E8A1D8A188E1F8A1A8E198E81E00E
:1018800090E09C8F8B8F88E291E00E94D70ED12C44
:10189000F12C74C0109231020E949C0B4B015C0130
:1018A00080E019C098013327082E02C0359527958E
:1018B0000A94E2F72095309521703327082E02C054
:1018C000220F331F0A94E2F7A90120912402242B4E
:1018D000209324028F5F833008F063C0682F70E08C
:1018E000AB01440F551F440F551FFA01EB5DFD4F2F
:1018F0004080518062807380A501940124193509CC
:10190000460957092A3130404040504000F12091AB
:10191000240230E0082E02C0359527950A94E2F79C
:1019200020FFC0CF98013327082E02C03595279598
:101930000A94E2F721703327082E02C0220F331FCA
:101940000A94E2F72095909124022923C1CF91E0D7
:1019500090933102BFCF80E090E090932202809379
:10196000210200912102109122020130110559F14A
:101970000230110509F467C0F0902402E0E4F2E0BF
:10198000A481B5818C9196818923082F10E027814D
:1019900002C0159507952A95E2F7809131028111D1
:1019A00079CF809124028F2580FFDBCF80912402A4
:1019B00080FFD7CF8091210290912202892B59F686
:1019C00082E090E0CACF298D3A8D2E533E4F84E2BB
:1019D000829FF001839FF00D11248F89988D2CE553
:1019E00039EF281B390B82E5829FB001839F700D70
:1019F000112490912302903009F4BECF409124022B
:101A00005E018FEFA81AB80A750120E030E0CF011F
:101A10000E94540B8E01055F1F4F4AE050E0B80151
:101A2000C5010E941A0B9E01255E3F4FAE01475E25
:101A30005F4FBE016B5E7F4FCE0147960E946C0BDD
:101A40001092230299CF80912302803009F494CF21
:101A5000D3948D2D8A3008F48FCF2F89388D8CE563
:101A600099EF821B930B64E170E00E94490E262FD0
:101A7000372FD62EB72E409124024E018FEF881AB1
:101A8000980A740160E070E080E090E00E94540BDE
:101A90008E01055F1F4F4AE050E0B801C4010E946B
:101AA0001A0B9E01255E3F4FAE01475E5F4FBE01A0
:101AB0006B5E7F4FCE0147960E946C0B1092230203
:101AC000298D3A8DC9016AE070E00E94490EFC013F
:101AD000009709F00CF44EC00F2EFAE08F2E912CD7
:101AE000F02DC901B4010E94490E062FA72EEF88E0
:101AF000F88CC701B4010E94490E9C01009709F0BF
:101B00000CF442C00F2EFAE08F2E912CF02DC7015D
:101B1000B4010E94490E462F172FED88FE88C70199
:101B2000B4010E94490E0097C9F1C4F1BF92DF923F
:101B3000FF93EF93AF920F933F932F931F934F9386
:101B40009F938F93C7016AE070E00E94490E7F93D4
:101B50006F938C8D8F938B8D8F938DE391E09F93FB
:101B60008F930E94C10E0FB6F894DEBF0FBECDBF9B
:101B7000D12C02CF88279927821B930B6AE070E053
:101B80000E94490EFC01A8CF882799278E199F092A
:101B90006AE070E00E94490E9C01B4CF8827992723
:101BA0008E199F096AE070E00E94490EBFCF0F9323
:101BB0001F93CF93DF93E0E4F2E0A481B5818C9191
:101BC0009681892390E0278102C0959587952A9573
:101BD000E2F7082F10E010C00E949C0BCC0FDD1F15
:101BE000CC0FDD1FCB5DDD4F688379838A839B83B8
:101BF00081E0809331021F5F1330C8F4809124028A
:101C0000C12FD0E0802790E0012E02C095958795E6
:101C10000A94E2F780FDE0CFCC0FDD1FCC0FDD1F73
:101C2000CB5DDD4F188219821A821B82E4CFDF91CF
:101C3000CF911F910F91089581E080932302089521
:101C40008091320290913302A0913402B09135021A
:101C50000196A11DB11D8093320290933302A0938F
:101C60003402B093350208950E94FA0A08950E9442
:101C7000070B0895A29FB001B39FC001A39F700DF1
:101C8000811D1124911DB29F700D811D1124911D84
:101C9000089597FB072E16F4009407D077FD09D01E
:101CA0000E94AD0E07FC05D03EF4909581959F4FA4
:101CB0000895709561957F4F0895A1E21A2EAA1B91
:101CC000BB1BFD010DC0AA1FBB1FEE1FFF1FA217EC
:101CD000B307E407F50720F0A21BB30BE40BF50BE9
:101CE000661F771F881F991F1A9469F76095709572
:101CF000809590959B01AC01BD01CF010895EE0F39
:101D0000FF1F0590F491E02D09940E943A0EA59FC3
:101D1000900DB49F900DA49F800D911D11240895E6
:101D200097FD1094002E083098F00850232F342F80
:101D3000452F562F672F782F892F912DF4CF15948B
:101D400097958795779567955795479537952795F3
:101D50000A95AAF71124002D0895AA1BBB1B51E177
:101D600007C0AA1FBB1FA617B70710F0A61BB70B0B
:101D7000881F991F5A95A9F780959095BC01CD01B0
:101D80000895A0E0B0E0E7ECFEE00C94B011AE01E5
:101D90004B5F5F4FFA0161917191AF0180918601B4
:101DA000909187010E94030FE2E00C94CC110F93F5
:101DB0001F93CF93DF93E0918601F09187012381F8
:101DC000EC0100E010E021FD0EC00FEF1FEFC80195
:101DD000DF91CF911F910F91089521960995892B3D
:101DE00011F00FEF1FEF88816091860170918701DC
:101DF000DB011896ED91FD918111EFCF8AE00995F5
:101E0000892B29F3E2CFABE0B0E0E9E0FFE00C94EE
:101E1000A3116C017B018A01FC0116821782838168
:101E200081FFDFC13AE0532EF6012381F70123FD44
:101E3000859123FF81917F01811509F437C1853296
:101E400039F423FD959123FF91917F01953229F477
:101E5000B60190E00E940A11E7CF30E0912C612C8E
:101E6000712CF0E27F1640F59B32D9F058F4903295
:101E7000D1F09332F1F09E3291F576FC17C168945F
:101E800076F806C09D3291F09033C1F4689470F8F2
:101E9000F70123FD959123FF91917F019111E1CFEE
:101EA00028C0689471F8689472F8F2CF689473F857
:101EB000EFCF689474F8ECCF77FC1BC080ED890FEE
:101EC0008A30C8F676FE05C0959C800D1124982EA8
:101ED000DFCF659C800D1124682E7F2AD9CF9C36D8
:101EE00019F4689477F8D4CF9C3409F445C0983637
:101EF00079F2892F8F7D8554833008F43FC0933663
:101F000009F461C0933709F46BC0933509F477C0C5
:101F1000943619F0993609F0A4C0F80177FE9AC0FA
:101F200061917191819191918F01272D2F76822E50
:101F300097FF04C00E949811689487F82AE030E067
:101F40005E014FEFA41AB40AA5010E943A11782E3F
:101F50007A1886FECFC0882D8E7F791408F0C9C00C
:101F600084FE1DC182FC11C12EEE8222B92C882D67
:101F7000867809F4CBC00EC131E08ACF311501F16A
:101F8000085F1F4F8FE3898321E0822E912C5E0131
:101F90002FEFA21AB20AE89477F873FC03C08614F4
:101FA0009104F0F18114910409F041C0611409F425
:101FB0003BCFB60180E290E00E940A116A94F6CF0E
:101FC0000C5F1F4FDFCFF801808189830E5F1F4FA9
:101FD00091E0892E912C5E01FFEFAF1ABF0ADBCF93
:101FE000F801A190B1908F01692D70E076FC02C0DC
:101FF0006FEF7FEFC5010E94FF104C01CCCFF801BD
:10200000A190B1908F01692D70E076FC02C06FEF56
:102010007FEFC5010E94F4104C01689477F8BDCFA2
:10202000B60180E290E00E940A116A94B8CFF501EF
:1020300077FC859177FE81915F01B60190E00E9467
:102040000A1181E0611001C080E0681AF1E08F1A86
:102050009108A8CF61917191872F880F880B982FD5
:1020600063CF9537C9F4872CE89484F82AE030E0F0
:10207000F80187FE39C061917191819191918F0131
:102080005E01FFEFAF1ABF0AA5010E943A11782E38
:102090007A18E89487F85DCF872D897F882E90374E
:1020A00099F058F49835A9F09F36D9F0F601868159
:1020B00097812B96EFE00C94BF119837B9F774FC19
:1020C00005C020E130E0D4CF689484F8689482F8A9
:1020D000F8CF74FE03C0E72DE6608E2E20E132E0DB
:1020E000C7CF28E030E0C4CF6191719180E090E0EB
:1020F000C6CF882EB72C84FE3ACFFE01E70DF11D26
:102100008081803309F044C049EE842283FC0EC0F4
:1021100080FE51C0972CB61418F4960C9B18B62C60
:10212000862D8B196B1408F480E0B80EB61408F0F5
:1021300044C06B1884FE43C0B60180E390E00E9467
:102140000A1182FE09C088E590E081FC02C088E7A0
:1021500090E0B6010E940A117914E0F15E018FEF60
:10216000A81AB80A7A9482E0882E912C8C0E9D1EB3
:10217000870C911CF40182914F01B60190E00E94FE
:102180000A118A149B04B1F711CFB92C882EB5CF50
:1021900082FC02C0B394BACFB394B394B7CFB92C36
:1021A000882EE5CEB60180E290E00E940A11A39449
:1021B000A614C0F3B5CFAB2CFBCF612CBBCF882DC1
:1021C000867851F280E281FC8BE287FC8DE2B601D9
:1021D00090E0C0CFB60180E390E00E940A119A948B
:1021E000BBCF8FEF9FEF65CFFC0105906150704032
:1021F0000110D8F7809590958E0F9F1F0895FC01D0
:102200006150704001900110D8F7809590958E0F25
:102210009F1F08950F931F93CF93DF93182F092FBC
:10222000EB018B8181FD09C00FEF1FEF812F902FF4
:10223000DF91CF911F910F91089582FF14C02E81DD
:102240003F818C819D81281739073CF4E881F98111
:10225000CF0101968883998310838E819F81019697
:102260008E839F83E3CFE885F985812F0995892B9C
:10227000A1F3DACFFA01AA27283051F1203181F1F8
:10228000E8946F936E7F6E5F7F4F8F4F9F4FAF4F7E
:10229000B1E03ED0B4E03CD0670F781F891F9A1F91
:1022A000A11D680F791F8A1F911DA11D6A0F711D45
:1022B000811D911DA11D20D009F468943F912AE051
:1022C000269F11243019305D3193DEF6CF01089539
:1022D000462F4770405D4193B3E00FD0C9F7F6CF6A
:1022E000462F4F70405D4A3318F0495D31FD405232
:1022F000419302D0A9F7EACFB4E0A69597958795C8
:1023000077956795BA95C9F70097610571050895A6
:102310009B01AC010A2E0694579547953795279552
:10232000BA95C9F7620F731F841F951FA01D0895EA
:1023300090958095709561957F4F8F4F9F4F089531
:102340002F923F924F925F926F927F928F929F92C5
:10235000AF92BF92CF92DF92EF92FF920F931F93B3
:10236000CF93DF93CDB7DEB7CA1BDB0B0FB6F89464
:10237000DEBF0FBECDBF09942A88398848885F84A4
:102380006E847D848C849B84AA84B984C884DF8015
:10239000EE80FD800C811B81AA81B981CE0FD11DF9
:1023A0000FB6F894DEBF0FBECDBFED01089510E06B
:1023B000C2E4D0E004C0FE010E947F0E2196C43426
:1023C000D107C9F7F894FFCFBC0843089C089E08C2
:1023D000A308AA08AF08B608660966095F095F097D
:1023E000660966095F095F09660966095F095F0991
:1023F0005F095F095F095F09660966095F095F098F
:10240000660966095F095F09660966095F095F0970
:102410005F095F095F095F09660966095F095F096E
:10242000660966095F095F09660966095F095F0950
:102430005F095F095F095F09660966095F095F094E
:10244000660966095F095F09660966095F095F0930
:102450005F095F095F095F09660966095F095F092E
:0C246000660966095F095F0966096609E4
:10246C000000000003050A05110518051F052605C7
:10247C002D05300500000000D3060A0511050507DF
:10248C003405260555055805496E696369616C6903
:10249C007A616E646F2041746D656761005374617D
:1024AC0074653A202575202050697463683A20259C
:1024BC00692E25752020526F6C6C3A2025692E25CB
:1024CC007520205961773A2025692E2575205345B2
:1024DC004E44494E473A205343524F4C4C3A2025D8
:0424EC00690D0A006C
:00000001FF
